:020000040800F2
:10000000F807002005010008771D0008DD1B000827
:10001000751D0008F10600086122000800000000BC
:100020000000000000000000000000007B1D000830
:100030002907000800000000791D00087D1D000848
:100040001F0100081F0100081F0100081F01000810
:100050001F0100081F0100081F0100081F01000800
:100060001F0100081F0100081F0100081F010008F0
:100070001F0100081F0100081F0100081F010008E0
:100080001F0100081F0100081F0100081F010008D0
:100090001F0100081F0100081F0100081F010008C0
:1000A0001F0100081F0100081F0100081F010008B0
:1000B0001F0100081F0100081F0100081F010008A0
:1000C0001F0100081F0100081F0100081F01000890
:1000D0001F0100081F010008552200081F01000829
:1000E0001F0100081F0100081F010008DFF810D0E1
:1000F00000F06EFA00480047592E0008AFF3008068
:10010000F80700200648804706480047FEE7FEE75C
:10011000FEE7FEE7FEE7FEE7FEE7FEE7FEE7FEE7B7
:10012000DD1D0008ED000008202A04DB203A21FA3A
:1001300002F00021704721FA02F3D040C2F1200200
:100140009140084319467047D2B201E000F8012BF4
:10015000491EFBD270470022F6E710B513460A4647
:1001600004461946FFF7F0FF204610BD30B505469E
:100170002A460B4612F8010B13F8014B08B1A042B6
:10018000F8D01CB1002802D06D1CF1E7284630BD24
:10019000421C10F8011B0029FBD1801A704730B5B2
:1001A00005460020034600E05B1C934205D2EC5C50
:1001B000C85C201A01D1002CF6D130BD0022CBB290
:1001C0000178994200D10246401C0029F8D110461E
:1001D000704730B50B46014600202022012409E07B
:1001E00021FA02F59D4205D303FA02F5491B04FAF0
:1001F00002F52844151EA2F10102F1DC30BD2DE903
:10020000F05F0546002092469B468846064681469A
:1002100040241BE02846414647462246FFF784FF1C
:1002200053465A46C01A914110D3114618462246E9
:1002300000F0E0F92D1A67EB01084F462246012035
:10024000002100F0D7F917EB00094E41201EA4F160
:100250000104DFDC484631462A464346BDE8F09FAC
:100260002DE9FE4F804681EA0300C00F0C46009046
:1002700021F0004123F00045B8EB0200A94105D26E
:100280004046214690461C460B46024623F000405D
:10029000104347D0270DC7F30A00C3F30A51029059
:1002A000401A019040286BDAC3F3130040F4801B1E
:1002B0000098924620B10023D2EB030A63EB0B0BAC
:1002C00001985946C0F14002504600F093F90646A5
:1002D0000D4650465946019A00F09BF910EB080074
:1002E0006141002487EA115284EAE7731A4340D03F
:1002F000009A62B3019A012A4FEA075215DC001BEB
:1003000061EB02014FF0004202EA0752CDE90042E0
:10031000001C41F5801132462B4600F09BF903B0DA
:10032000BDE8F08F40462146F9E7001B61EB020172
:10033000001C41F5801300185B412018A2F500173E
:1003400047EB030140EAD570B6196D4111E06D0825
:100350004FEA360645EAC0754FEA0752001B61EBCB
:100360000201001C41F5801149084FEA30000019D4
:10037000514132462B4603B0BDE8F04F00F05BB967
:100380000098012240000023D0EB020263EBE073EF
:10039000009821464FEAE074B8EB000061EB0401DD
:1003A000E9E783F000435BE781F0004158E72DE97E
:1003B000FE4F81EA030404F0004421F00041009460
:1003C0004FF0000B23F0004350EA01045ED052EAE4
:1003D00003045BD0C3F30A54C1F30A552C44A4F2BE
:1003E000F3340194A0FB0254C1F3130141F48011D2
:1003F000C3F3130343F4801301FB024400FB034ED9
:10040000840A970A44EA815447EA8357A4FB0768A1
:1004100002958D0A05FB07854FEA932C04FB0C54CB
:100420002705029D4FEA065847EA1637B5EB08053F
:100430006EEB070C870E920E47EA811742EA831291
:10044000A7FB0201B6EB0B0164EB00042B0D43EAA2
:100450000C335E1844EB1C50DA465146E7FB0201B0
:10046000C5F313044FEA0B3343EA14534FEA043243
:10047000019C43EA0603A4F10C040294009CCDE91C
:1004800000B400F0E7F803B0BDE8F08F00200146AB
:10049000F9E72DE9F04D81EA030404F0004B21F067
:1004A000004514464FF0000A23F0004150EA0502CF
:1004B00020D054EA01021DD0C5F30A570246C5F305
:1004C0001303C1F31300C1F30A5640F4801543F43B
:1004D0008013A7EB0608101BD64608F2FD3873EB15
:1004E000050002D308F1010801E092185B41B8F160
:1004F000000F03DA00200146BDE8F08D00204FF424
:100500008011064684460EE0171B73EB050705D3E2
:10051000121B63EB050306434CEA010C49084FEA42
:10052000300092185B4150EA0107EDD152EA030016
:1005300012D082EA040083EA0501084305D0101BAB
:10054000AB4106D20122002306E000224FF0004317
:1005500002E06FF0010253101AEB06004CEB085159
:1005600010EB0A0041EB0B01BDE8F04D00F063B861
:10057000C1F30A52C1F3130140F2FF3341F4801179
:100580009A4202DA00200146704740F233439A4211
:10059000A2F2334202DC5242FFF7C6BD00F02AB895
:1005A00030B5041E71F1000404DB4FF000444042FA
:1005B00064EB0101141E73F1000405DB1C464FF0CF
:1005C0000043524263EB0403994208BF904230BD9E
:1005D000064C074D06E0E06840F0010394E8070090
:1005E00098471034AC42F6D3FFF784FDC82F0008BB
:1005F000E82F0008202A04DB203A00FA02F100204C
:1006000070479140C2F1200320FA03F31943904050
:100610007047202A06DBCB17203A41FA02F043EA62
:10062000E07306E041FA02F3D040C2F120029140AB
:1006300008431946704710B5141E73F1000408DA18
:10064000401C41F1000192185B411A4301D120F096
:10065000010010BD2DE9F04D92469B4611B1B1FA53
:1006600081F202E0B0FA80F220329046FFF7C2FF3A
:1006700004460F4640EA0A0041EA0B0153465A4637
:10068000084313D0114653EA010019D0C8F14002C3
:100690005046FFF749FD05460E465046594642462C
:1006A000FFF7A8FF084305D0012004E020463946A3
:1006B000BDE8F08D0020054346EAE0762C43374341
:1006C0000A986305E40AA0EB08000022FD0A44EA48
:1006D00047540A3002D500200146E9E70105101908
:1006E0006941DDE9084500196941BDE8F04DA2E71F
:1006F000FEE710B5044600F00FF8204600F030FA8F
:10070000BDE81040AFF3008000220221014800F054
:1007100029BB00000008014001220221014800F02D
:1007200021BB0000000801407047000010B54FF4E5
:1007300000710548FFF70FFDBDE810404FF48071D0
:100740000248FFF708BD0000200000202002002022
:100750002DE9F041C2B00D46184C80460121489861
:10076000A170CDE9003013460F0215A2394602A848
:1007700001F078FD4FF4FA62002102A802F07EFA3F
:10078000002620B1A670012042B0BDE8F0814346AA
:1007900015A2394602A8009501F064FD43F698229F
:1007A00017A102A802F06AFA18B119A002F04CFAD7
:1007B000E8E70220A0700020E6E700001C0000200F
:1007C0002B4D515454555345524346473D302C31DF
:1007D0002C222573222C222573222C222573222CD5
:1007E000302C302C222200002B4D515454434F4EBC
:1007F0004E3D302C222573222C25642C3100000024
:100800004D515454434F4E4E45435445440000000F
:100810005B4D5154545D20436F6E6E656374696F18
:100820006E204641494C45440D0A000070B5164CF7
:100830000646A2B001200D46607040F6B832002195
:1008400012A002F01BFA4FF47A7000F089F93346D7
:1008500010A2802101A8009501F004FD44F6206259
:1008600011A101A802F00AFA20B100206070012055
:1008700022B070BD022060704FF4FA6200210EA019
:1008800002F0FCF90020F3E71C0000202B43575135
:10089000415000002B43574A41503D222573222CE2
:1008A00022257322000000005749464920434F4E3D
:1008B0004E454354454400002B43494653520000E3
:1008C00000487047200000200148807870470000F1
:1008D0001C00002070B54FF4FA6200210AA002F05B
:1008E000CDF90B4C002560B90AA10C48FFF73EFC7E
:1008F00038B90BA10948FFF739FC10B1022060702C
:1009000000E06570607870BD2B43574A41503F004E
:100910001C0000204E6F20415000000020000020ED
:100920002B43574A41503A00F8B5214D4FF480749B
:1009300000222146284600F015FA642000F010F944
:1009400001222146284600F00DFA40F6B83000F0AA
:1009500007F90A2301226946164801F095F8002894
:10096000F7D000244FF47A7675002A46002112A0B1
:1009700002F084F938B1022C11D0304600F0F0F8C2
:10098000641C032CF1DB2C462A4600210BA002F04C
:1009900075F9224600210BA002F070F908B1012080
:1009A000F8BD224600210AA002F068F90020F8BD37
:1009B00000080140B003002041540000415445307C
:1009C000000000002B43574D4F44453D31000000CF
:1009D0002B474D520000000010B50D4CADF5047DC5
:1009E000A478022C0FD18DE80E00034609A2210243
:1009F00003A801F037FC41F28832002103A802F07D
:100A00003DF9002800D001200DF5047D10BD000047
:100A10001C0000202B4D5154545055423D302C2287
:100A20002573222C222573222C25642C256400009A
:100A300000B50C4AC1B09278022A0FD1034600914A
:100A400009A24FF4807101A801F00CFC41F2883238
:100A5000002101A802F012F9002800D0012041B0C5
:100A600000BD00001C0000202B4D51545453554232
:100A70003D302C222573222C2564000072B6FEE73F
:100A800010B590F821100022022905D004218163BD
:100A900080F82020012010BD01680B6823F00E03B0
:100AA0000B6001680B6823F001030B6090F8403085
:100AB000C46B012101FA03F3636080F8211080F810
:100AC0002020104610BD000010B590F82110002421
:100AD000022903D00421816301243DE001680A68F2
:100AE00022F00E020A6001680A6822F001020A6020
:100AF0001A4A0168914201D1012121E0174A1432BA
:100B0000914201D110211BE0144A2832914201D1B7
:100B1000891515E0114A3C32914201D189140FE048
:100B20000E4A5032914202D14FF4803108E00B4A14
:100B30006432914202D14FF4801101E04FF0807194
:100B4000064A083A5160012180F82110002180F8FE
:100B50002010416B01B18847204610BD08000240BB
:100B600070B5044600F004F90546601C02D0044844
:100B70000078044400F0FCF8401BA042FAD370BD9A
:100B80000C0000202DE9F84FDFF8B8910024A9F1FE
:100B9000040B23460F2709F1040AABF1040EC9E048
:100BA0000125A5402A40AA427DD1674ED1F804C054
:100BB000ACEB0608B44532D014DCBCF1030F3AD0DC
:100BC00009DCBCF1000F2AD0BCF1010F1CD0BCF134
:100BD000020F31D11DE0BCF1110F17D0BCF1120F83
:100BE0002AD119E0B8F5881F19D006DCB8F5803F86
:100BF00015D0B8F5801F1FD111E0B8F5001F0ED039
:100C0000B8F5041F18D10AE0CB6815E0CB681B1DAE
:100C100012E0CB6808330FE0CB680C330CE08B6834
:100C20002BB1012B4FF0080303D0456104E00423EE
:100C300002E0056100E00023FF2A01D8064601E03A
:100C400000F104064FEA840501D9A5F12005D6F884
:100C5000008007FA05FC28EA0C0803FA05F548EAC3
:100C60000508C6F800804D68ED0062D5374DAE69C5
:100C700046F00106AE61AD6924F0030605F00105FA
:100C80000095334D06EB050CDCF80850A607360F2F
:100C900007FA06F825EA0805DFF8B880404503D1D1
:100CA0004FF0000817E044E0DFF8AC80404502D187
:100CB0004FF001080FE0DFF8A480404502D14FF06B
:100CC000020808E0DFF89880404502D14FF00308A1
:100CD00001E04FF0040808FA06F848EA0508CCF8E5
:100CE00008804D68D9F80060ED024D4601D51643E5
:100CF00000E096432E604D68DAF80060AD0255467C
:100D000001D5164300E096432E604D68DBF8006085
:100D1000AD035D4601D5164300E096432E604D6855
:100D2000DEF80060ED03754601D5164300E09643FA
:100D30002E60641C0D682A46E5407FF431AFBDE8A3
:100D4000F88F00000804014000001110001002405C
:100D50000000014000080140000C0140001001406B
:100D6000001401400AB1016170470904FBE700006B
:100D700001488068704700000C000020024881682C
:100D800002781144816070470C000020074810B5BC
:100D9000016841F010010160032000F075F80020A7
:100DA00000F006F800F024F8002010BD00200240FA
:100DB00070B50D4D04464FF47A712878B1FBF0F010
:100DC0000A490968B1FBF0F000F0DCFA48B9102CD0
:100DD00007D200222146501E00F036F800206C6039
:100DE00070BD012070BD00000C0000201800002024
:100DF0000C4808B5816941F001018161816901F008
:100E000001010091C16941F08051C161C06900F0E8
:100E1000805000900448416821F0E06141F0007189
:100E2000416008BD0010024000000140002809DBBD
:100E300000F01F02012191404009800000F1E020F4
:100E4000C0F8001170470000F0B40E4B1B680C4650
:100E5000C3F30223C3F10705042D00D90425191D8E
:100E6000072901D2002300E0DB1E012606FA05F166
:100E7000491E214099409E40761E16403143F0BCE9
:100E800001F024BA0CED00E0064900F00702086802
:100E90004FF6FF03184040EA0220034A104308605F
:100EA000704700000CED00E00000FA052DE9F04766
:100EB0000F46050061D0434E306800F00700B8428D
:100EC00009D2306820F0070038433060306800F005
:100ED0000700B84251D128683B4C810712D5400722
:100EE00003D5606840F4E06060602878000703D5AF
:100EF000606840F4605060606068A96820F0F000AD
:100F0000084360602878C00728D06868012810D09E
:100F10002168022810D0890700292EDA616821F0A3
:100F2000030101436160FFF723FF804641F28839E6
:100F30000DE021688903EFE78901EDE7FFF718FF6E
:100F4000A0EB0801494502D90320BDE8F08760689D
:100F5000696800F00C00B0EB810FEFD1306800F051
:100F60000700B8420BD9306820F0070038433060E2
:100F7000306800F00700B84201D00120E5E728788A
:100F8000400705D56068E96820F4E06008436060C8
:100F90002878000706D56068296920F4605040EA87
:100FA000C100606000F038F86168084AC1F30311BD
:100FB000515CC8400649086006480068FFF7F8FE23
:100FC0000020C2E70020024000100240AE2F0008BF
:100FD00018000020100000200448054900684968F6
:100FE000044AC1F30221515CC84070471800002038
:100FF00000100240BE2F00080448054900684968F7
:10100000044AC1F3C221515CC84070471800002057
:1010100000100240BE2F00080E4A51680E4801F031
:101020000C03042B11D0082B0FD10C48C1F38343C0
:10103000C903C05C0AD55168084AC1F34041921EF9
:10104000515C054A5043B0FBF1F0704704494843F6
:10105000704700000010024000127A009E2F000826
:1010600000093D002DE9F84F040070D02078C04DF4
:10107000C00749D06868C0F38100012807D06868BC
:10108000C0F38100022809D16868C00306D528682A
:10109000800339D560680028E7D035E06068B0F596
:1010A000803F0BD010B1B0F5A02F11D0286820F4EC
:1010B00080302860286820F4802002E0286840F40E
:1010C00080302860606890B1FFF752FE06460AE063
:1010D000286840F480202860F0E700BFFFF748FE52
:1010E000801B642873D828688003F7D50CE0FFF7CD
:1010F0003FFE064605E000BFFFF73AFE801B64286E
:10110000F0D828688003F7D420789A4E80074FF0F3
:1011100001094FF0000839D5686810F00C0F07D0AE
:101120006868C0F38100022809D16868C00306D44A
:101130002868800714D52069012808D110E02069AB
:10114000B0B1C6F80090FFF713FE074605E00AE1CC
:10115000FFF70EFEC01B0228C4D828688007F7D509
:101160002868616920F0F80040EAC10028600DE0BD
:10117000C6F80080FFF7FCFD074604E0FFF7F8FD26
:10118000C01B022823D828688007F7D420780007DE
:101190002CD57948A169D9B1C0F80090FFF7E8FDD6
:1011A000074604E0FFF7E4FDC01B02280FD8686A79
:1011B0008007F7D571484FF4FA510068B0FBF1F0A1
:1011C000009000BF0098411E0091FAD20EE080E02E
:1011D000C0F80080FFF7CCFD074604E0FFF7C8FD2C
:1011E000C01B022875D8686A8007F7D420784007AA
:1011F00060D5E8690027C00008D4E86940F0805055
:10120000E861E869012700F0805000905C480168BF
:10121000C90513D40168834641F480710160FFF76A
:10122000A7FD824606E000BFFFF7A2FDA0EB0A0083
:1012300064284ED8DBF80000C005F5D5E068012829
:101240000AD008B1052813D0286A20F001002862CE
:10125000286A20F0040002E0286A40F001002862B9
:10126000E06841F2883B98B1FFF782FD82460BE0CF
:10127000286A40F004002862EEE700BFFFF778FD1F
:10128000A0EB0A0159455AD8286A8007F6D50CE028
:10129000FFF76EFD824605E0FFF76AFDA0EB0A014D
:1012A00059454CD8286A8007F6D41FB1E86920F068
:1012B0008050E861E06988B36968C1F3810102295F
:1012C00044D00228C6F8608004D0FFF751FD0446E0
:1012D00038E034E0FFF74CFD074604E0FFF748FD37
:1012E000C01B02282BD828688001F7D4206AB0F5EB
:1012F000803F05D16868A16820F400300843686029
:10130000D4E908010843696821F47411084368604E
:10131000C6F86090FFF72CFD044606E025E000BF0C
:10132000FFF726FD001B022809D828688001F7D5A1
:101330001BE000BFFFF71CFD001B022802D90320A1
:10134000BDE8F88F28688001F4D40EE00128F7D0BA
:101350006868226A00F48031914204D1616A00F425
:101360007010884201D00120EAE70020E8E7000081
:101370000010024000004242800442421800002057
:101380000070004010B5401EB0F1807F01D30120F5
:1013900010BD4FF0E02460610F21601700F096FF50
:1013A0000020A06107202061002010BD70B590F8DA
:1013B0003C20012A26D0012480F83C40022280F8FB
:1013C0003D2003685A689D6822F070060A6832431F
:1013D0005A600D4B02689A4208D0B2F1804F05D096
:1013E0000A4B9A4202D00A4B9A4204D1496825F02E
:1013F00080031943916080F83D40002180F83C1043
:10140000084670BD022070BD002C01400004004061
:101410000008004010B5040003D094F83D0010B15E
:1014200007E0012010BD002084F83C00204600F0B9
:101430001FF8022084F83D00211D206800F0D0FC38
:10144000012084F8460084F83E0084F83F0084F8C8
:10145000400084F8410084F8420084F8430084F896
:10146000440084F8450084F83D00002010BD0000D1
:1014700008B500680649884208D10648C16941F0AC
:101480000401C161C06900F00400009008BD0000C3
:10149000000800400010024070B5044690F83C007F
:1014A0000025012817D0012684F83C60022084F82A
:1014B0003D002068826822F0770222F47F42826039
:1014C0000868502838D00DDC20284FD005DC90B3B8
:1014D000102811D14AE0022070BD302846D04028A3
:1014E0000AD13BE060282FD070280DD0B0F5805F86
:1014F00003D0B0F5005F12D0012584F83D600020D4
:1015000084F83C00284670BDCB68D1E901212068F1
:1015100000F0A2FC2068816841F0770109E0CB6807
:10152000D1E90121206800F097FC2068816841F42E
:1015300080418160E1E719E0CA684968206800F0ED
:101540003FFD5021206806E0CA684968206800F025
:1015500048FD6021206800F089FCCEE7CA68496830
:10156000206800F02DFD40212068F4E72268014644
:101570001046F0E700B585B000210091019102917D
:10158000039100680B49884211D10B48816941F0F1
:10159000080181618069694600F0080004904020DC
:1015A00000900220019003900448FFF7EBFA05B089
:1015B00000BD00000008004000100240000C014087
:1015C00070B5044690F83C0000260D4601280FD067
:1015D000012084F83C006AB1042A1DD0082A2FD0CB
:1015E0000C2A3FD00126002084F83C00304670BD14
:1015F000022070BD206800F041FC2068816941F044
:10160000080181612068816921F0040181612068FD
:1016100081692A69114311E0206800F057FC2068B5
:10162000816941F4006181612068816921F48061F0
:101630008161206881692A6941EA02218161D2E7DA
:10164000206800F06FFC2068C16941F00801C161A9
:101650002068C16921F00401C1612068C1692A695B
:10166000114311E0206800F089FC2068C16941F451
:101670000061C1612068C16921F48061C161206895
:10168000C1692A6941EA0221C161ACE710B50400D1
:1016900003D094F83D0010B107E0012010BD0020F8
:1016A00084F83C00204600F01EF8022084F83D003B
:1016B000211D206800F094FB012084F8460084F886
:1016C0003E0084F83F0084F8400084F8410084F82C
:1016D000420084F8430084F8440084F8450084F80C
:1016E0003D00002010BD704770477047F8B5016895
:1016F00004460868CA684B6910F00F0F4FF00005E8
:1017000059D003F0010602F49077374365D0C10742
:1017100005D0D10503D5616C41F001016164410739
:1017200005D5D90703D0616C41F0020161648107DE
:1017300005D5D90703D0616C41F00401616401074C
:1017400007D502F02001314303D0616C41F008015C
:101750006164616C00293AD0800604D5900602D5F8
:10176000204600F07FFC20684069616CC0F3801067
:10177000090700D460B3204600F04DFC20684069A2
:10178000400621D52068143050E8001F21F04001A8
:1017900040E80012002AF5D1E06BA8B16D49416321
:1017A000E06BFFF791F9002811D0E06B416B01B0BD
:1017B000BDE8F040084783060FD593060DD52046B7
:1017C000BDE8F84000F04EBC2046FFF78EFFF8BDA4
:1017D0002046FFF78AFF6564F8BD266B2023012EA3
:1017E0007CD1C6067AD5D60678D5086848680090B8
:1017F00048694FF00206400640D5E16B0868406832
:101800000004000CE8D0A28D8242E5D9E085886909
:1018100020282DD020680C3050E8001F21F4807162
:1018200040E80012002AF5D12068143050E8001F6B
:1018300021F0010140E80012002AF5D1206814309F
:1018400050E8001F21F0400140E80012002AF5D1C5
:1018500084F84230256320680C3050E8001F21F0E6
:10186000100140E80012002AF5D1E06BFFF708F9FB
:101870006663A08DE18D401A81B22AE0A08DE18DD2
:10188000401A81B2E08D0028A6D00029A4D0226899
:101890000C3252E8000F20F4907042E80007002F4D
:1018A000F5D12068143050E8002F22F0010240E802
:1018B0000027002FF5D184F84230256320680C30D2
:1018C00050E8002F22F0100240E80023002BF5D151
:1018D00066632046FFF708FFF8BDFFE705062BD536
:1018E000150629D594F841002128F5D1A068B0F556
:1018F000805F01D12069B0B1206A411C216221685A
:1019000000784860E08C401E0004000CE084E3D1C5
:101910002068C16821F08001C1602068C16841F081
:101920004001C160D8E7206A0088C0F30800486021
:10193000206A801C2062E5E74006CDD55006CBD555
:10194000CA68204622F04002CA6084F8413000F0A4
:1019500044F9C1E70720000870B5040004D094F8EA
:101960004100002510B106E0012070BD84F8405010
:10197000204600F023F8242084F841002068C16844
:1019800021F40051C160204600F0CEFB20680169BF
:1019900021F4904101612068416921F02A014161EF
:1019A0002068C16841F40051C1606564202084F85A
:1019B000410084F842006563002070BD70B586B0B8
:1019C000002400940194029403942B4E03682B4945
:1019D000022003222A4DB34221D18B6943F4804374
:1019E0008B618B6903F4804304938B6943F0040398
:1019F0008B618969039201F0040104910102CDE930
:101A0000001069462846FFF7BDF82815CDE9000407
:101A1000694628460294FFF7B5F806B070BD194E26
:101A2000B342FAD1CB6943F40033CB61CB6903F401
:101A3000003304938B6943F004038B61896903923B
:101A400001F0040104910421CDE900106946284603
:101A5000FFF798F80820CDE900046946284602946B
:101A6000FFF790F8002211462620FFF7EDF9262017
:101A7000FFF7DCF9D1E70000003801400010024018
:101A800000080140004400402DE9F84F044690F85A
:101A900042009A4616460D46202802D00220BDE894
:101AA000F88FB5B1AEB100206064222184F84210F5
:101AB0002063FFF75DF9A6858146E685A0684FF4AF
:101AC00080582027404501D1206920B12E460025AD
:101AD00029E00120E3E7002625E04B4600222021F3
:101AE0002046CDF800A000F07BFB18B184F84270CE
:101AF0000320D4E726B1A06840451AD038B108E0E9
:101B000020684068C0F3080025F8020B08E020694F
:101B100078B12068406800F07F0000BF06F8010B34
:101B2000E08D401EE085E08D0028D6D184F842701B
:101B3000B5E720684068F1E770472DE9F8430446AF
:101B400090F84100984616460D46202802D0022003
:101B5000BDE8F88385B17EB100206064212084F85F
:101B60004100FFF705F9A6848146E684A068202796
:101B7000B0F5805F02D003E00120E9E7206910B1F1
:101B80002E4600250EE000260CE08021204600F0C5
:101B900027FBA8B9C6B116F8010B21684860E08C94
:101BA000401EE084E08C4B464FF00002CDF80080F0
:101BB0000028EAD14FF04001204600F011FB40B16F
:101BC00084F841700320C3E735F8020BC0F3080026
:101BD000E3E784F841700020BAE77047FEE710B5EC
:101BE00000F008F800F04AF800F0B0F8BDE8104046
:101BF00000F090B82DE9F04186B01E48002502950E
:101C0000816941F004018161816901F0040104915D
:101C1000816941F008018161816901F00801049145
:101C2000816941F010018161806902240126CDE9BA
:101C3000004600F01000CDE90340DFF83C80694623
:101C40004046FEF79FFFE701CDE90254CDE900765B
:101C500069464046FEF796FF002202214046FFF704
:101C600081F8012239464046FFF77CF806B0BDE80E
:101C7000F0810000001002400008014010B58EB055
:101C800000240794089409940A940B941C21684634
:101C90000C94FEF760FA1E481C4901604721C0E918
:101CA000011440F2E731C0E903148461FFF7B2FB8D
:101CB00008B1FEF7E3FE4FF48050079007A91448DF
:101CC000FFF7EAFB08B1FEF7D9FE1148FFF7DEFC8B
:101CD00008B1FEF7D3FE0B940BA90D480C94FFF747
:101CE00065FB08B1FEF7CAFE6020CDE9000402944E
:101CF0000022694606480494FFF762FC08B1FEF72B
:101D0000BDFE0348FFF736FC0EB010BD00080040D2
:101D1000200300200C4810B50A4901604FF4E1315E
:101D20004160002181600C22C160C0E90412816120
:101D3000C161FFF711FE002803D0BDE81040FEF797
:101D40009DBE10BD003801406803002008480749C7
:101D500001604FF4E1314160002181600C22C160DB
:101D6000C0E904128161C161FFF7F6BD0044004083
:101D7000B0030020FEE7FEE770477047FEF7FEBFA6
:101D800030B58FB028216846FEF7E5F914210AA87E
:101D9000FEF7E1F90A20009001200225CDE90605B1
:101DA0001021CDE9040100244FF4E010CDE90840F2
:101DB0006846FFF757F908B172B6FEE70F200A90A0
:101DC000CDE90B540D9401210AA80E94FFF76EF88B
:101DD000002801D072B6FEE70FB030BD704700009A
:101DE000F0B50268194B1A4C1A4D4FF080479842D3
:101DF00005D0B84203D0A04201D0A84203D122F0BE
:101E000070064A683243984205D0B84203D0A042D7
:101E100001D0A84203D122F44074CA6822434C691D
:101E200022F08002224302608A68C2620A688262EB
:101E3000984201D109690163012141610169C90722
:101E400003D0016921F001010161F0BD002C0140C6
:101E5000000400400008004010B5846842EA0322F4
:101E600024F47F440A432243826010BD826822F03A
:101E700070020A4342F007018160704730B5036A7F
:101E8000026A22F0010202624268846924F073054A
:101E90000C682C4323F002058B682B430A4DA842A3
:101EA0000BD123F00805CB6822F440722B434D6917
:101EB00023F0040315438A692A4342608461496818
:101EC0004163036230BD0000002C014030B5026A5E
:101ED000036A23F010030362436884690D6824F4E5
:101EE000E64444EA05248D6822F0200242EA051205
:101EF0000B4DA8420ED1CD6822F0800242EA0512B5
:101F00004D6923F4406343EA85038D6922F0400262
:101F100043EA85034360846149688163026230BD9E
:101F2000002C014030B5036A026A22F4807202621A
:101F30004268C46923F4007324F073050C682C43D1
:101F40008D6843EA05230C4DA8420ED1CD6823F4D9
:101F5000006343EA05234D6922F4405242EA051228
:101F60008D6923F4806342EA05124260C4614968C6
:101F7000C163036230BD0000002C014030B5046A2B
:101F8000026A22F4805202624268C3690D6823F437
:101F9000E64343EA05238D6824F4005444EA0534FB
:101FA000064DA84204D14D6922F4804242EA8512CE
:101FB0004260C36149680164046230BD002C014085
:101FC00010B5036A046A24F001040462846924F0F1
:101FD000F00444EA021423F00A020A438461026214
:101FE00010BD10B5036A046A24F010040462846909
:101FF00023F0A00324F4704444EA023243EA0111BE
:102000008261016210BD10B5406A0021C185C184A2
:10201000FFF76BFB10BD01680C3151E8002F22F473
:10202000907241E80023002BF5D10168143151E88A
:10203000002F22F0010241E80023002BF5D1016BB3
:10204000012909D101680C3151E8002F22F010025A
:1020500041E80023002BF5D1202180F84210002117
:102060000163704708B590F84210222901D0022080
:1020700008BD82684FF480539A4201D1016921B1B1
:10208000816A9A421BD04AB10AE00268816A5268AA
:10209000C2F308020A80816A891C08E0026972B1F1
:1020A0000268526802F07F020A70816A491C8162EC
:1020B000C18D491E0904090CC18503D01BE00268CB
:1020C0005268F1E70168CA6822F02002CA6001681C
:1020D000CA6822F48072CA6001684A6922F001026B
:1020E0004A61202180F8421000214163026B012ADD
:1020F00003D0FFF721FD002008BD016301680C310A
:1021000051E8002F22F0100241E80023002BF5D106
:1021100001680A68D20602D50A6849680091818D73
:10212000FFF7E2FAE7E7000070B5044600680169CE
:10213000E26821F44051114301612169A06808431C
:10214000616908432168CA6841F20C639A430243FB
:10215000CA6020684169A26921F44071114341615C
:102160001E492068884202D1FEF746FF01E0FEF7D3
:1021700033FF00EBC00101EB0012606864218000B6
:10218000B2FBF0F3B3FBF1F36FF018067343B2FB4D
:10219000F0F5B2FBF0F605EB8305322303EB0515F2
:1021A000B5FBF1F5B6FBF1F605F0F00505EB06150C
:1021B000B2FBF0F6B2FBF0F0B0FBF1F06FF01802FA
:1021C000504306EB800003EB0010B0FBF1F02168F8
:1021D00000F00F002844886070BD00000038014006
:1021E0002DE9F843984617460D460446089E24E01C
:1021F000701C22D0FEF7BCFDA0EB0800B0421AD83C
:10220000CEB12068C168490717D5802D15D0402D63
:1022100013D00168C94309070FD40168002540683D
:1022200000902046FFF7F7FE0820606484F84050D5
:102230000120BDE8F8830320FBE72068006835EA49
:10224000000004D00020B842D2D00020F1E70120E5
:10225000F9E700000148FFF749BA0000B003002089
:10226000FEE700000FB47CB50C0009AD01D0611E83
:1022700000E00021CDE90001064B6A462946089896
:1022800000F006F9002C02D0009A002111707CBCED
:102290005DF814FB972B00087CB50C001D46164614
:1022A000014601D0601E00E00020CDE90010064B81
:1022B0006A462946304600F0EBF8002C02D0009A1E
:1022C000002111707CBD0000972B00080907090E42
:1022D000002804DB00F1E02080F80014704700F0D3
:1022E0000F0000F1E02080F8141D704702E008C8DC
:1022F000121F08C1002AFAD170477047002001E080
:1023000001C1121F002AFBD1704700002DE9FF5FB9
:1023100082B00021DDE90430020DDDF840B0034356
:1023200018D044F61050A2F2FF324243151411980F
:1023300001281FD0A5EB0B00401C5FEA000A4FF0FC
:1023400000064E4FDFF83891B046504615D5CAF119
:10235000000413E0119801244AA3012801D16FEA77
:102360000B010298119AC0E90031C0E9024206B09F
:10237000BDE8F09FCBF10000DFE704460021404AB2
:10238000491842EB0450CDE9001012E0E00707D0F5
:1023900032463B4640464946FEF709F880468946A4
:1023A00032463B4610461946FEF701F806460F46F0
:1023B0006410002CEAD1DDE90401DDE90023BAF163
:1023C000000F06DAFDF7F3FF42464B46FDF7EFFF3D
:1023D00005E0FEF75EF842464B46FEF75AF8044623
:1023E0000E460022284BFEF7DBF803D84FF0FF30F3
:1023F000014607E00022254B20463146FDF730FF1D
:10240000FEF7B6F8102409E0002C0ADB0A220023AC
:10241000FDF7F5FE039B30321A55641E50EA0102A7
:10242000F2D1641C039AC4F111031444119A012AD5
:1024300003D0012208430DD10AE0084304D0002054
:102440004FF0110B119072E7A3EB0B056D1E0DE021
:102450005B4504DD4FF0000205F1010504E003DAFD
:102460004FF00002A5F10105002AECD00298119965
:10247000C0E90231C0E9004579E7000000001440DE
:102480000000F03F300000000000F0430000E03F9B
:102490002DE9FF4F95B09A46884606460025EEE1A5
:1024A000252877D100242746F94A0121039400E02A
:1024B000044316F8013F203B01FA03F01042F7D124
:1024C00030782A2811D06FF02F033078A0F1300235
:1024D000092A16D8039A44F0020402EB820203EBA5
:1024E00042021044761C0390EFE758F8042B039245
:1024F000002A03DA504244F40054039044F00204EA
:10250000761C30782E2816D116F8010F44F00404FA
:102510002A280DD06FF02F023078A0F13003092B5C
:1025200009D807EB870302EB4303C718761CF3E7D0
:1025300058F8047B761C30786C280FD006DC4C28C9
:1025400017D068280DD06A2814D104E0742810D060
:102550007A280FD10DE044F400140AE044F480140A
:1025600001E044F440147278824202D104F58014F0
:10257000761C761C307866280BD013DC582877D070
:1025800009DC002875D04528F6D04628F4D0472825
:102590001AD193E118E0632835D0642879D06528F2
:1025A00012D18BE1702873D008DC6728F1D069283C
:1025B0006FD06E280DD06F2806D1ACE073282CD0D8
:1025C000752874D0782853D05246179990476D1CBF
:1025D00054E1C4F30250022809D003280DD0D8F8E2
:1025E000001004280DD00D6008F1040846E1D8F869
:1025F0000010EA17C1E90052F6E7D8F800100D8084
:10260000F2E70D70F0E718F8041B8DF800100020B9
:102610008DF80100EB46012003E058F804BB4FF0B1
:10262000FF3061074FF0000102D40DE009F1010114
:102630008946B9420FDA8145F8DB1BF809100029F9
:10264000F4D108E009F1010189468142FADB1BF867
:1026500009100029F6D103985346A0EB090721463B
:102660003846179A00F080FA284400EB090507E085
:1026700044E008E10DE01BF8010B52461799904722
:10268000B9F10109F7D2534621463846179AF2E0CC
:1026900039E00A21C4F302524FF0000B0091022AE4
:1026A00006D058F8040BC117032A09D00AE023E02A
:1026B00008F1070020F00702F2E80201904605E069
:1026C00000B2C117042A01D140B2C117002906DAAD
:1026D0000A460021404261EB02012D2202E0220560
:1026E00004D52B228DF80420012203E0E20701D05B
:1026F0002022F7E7914657E00A2100E010214FF031
:10270000000B00910BE010214FF0000B44F004048B
:102710000827009103E008204FF0000B0090C4F35D
:102720000252022A05D058F8040B0021032A08D0CF
:1027300008E008F1070020F00702F2E802019046E5
:1027400003E080B2042A00D1C0B24FF00009220792
:102750002AD53278702A07D0DDF800C08CF0100C32
:102760005CEA0B0C05D00EE040228DF8042001221B
:1027700008E050EA010306D030238DF804308DF8CC
:10278000052002229146009B83F0080353EA0B03C5
:102790000AD150EA010201D1620705D530228DF835
:1027A00004204FF001097F1E3278582A04D039A244
:1027B0000C920CAA02920BE03BA2F9E75B46009A4E
:1027C000FDF71DFD0C9B9B5C029A521E029213703A
:1027D00050EA0102F2D1029804A9081A00F1200B74
:1027E000600702D524F4803400E001275F4502DD54
:1027F000A7EB0B0000E0002000EB0B01009003981A
:102800004944401A0390E00306D453462146179AE0
:10281000039800F0A9F90544002706E001A85246F4
:10282000C05D179990476D1C7F1C4F45F6DBE00398
:102830000CD553462146179A039800F095F90544A4
:1028400004E030205246179990476D1C0099481EAD
:1028500000900029F5DC08E00298029952460078C1
:10286000491C0291179990476D1CBBF10001ABF117
:10287000010BF1DC5BE100F065F90544761C307872
:1028800000287FF40DAE19B02846BDE8F08F000097
:102890000928010030313233343536373839616236
:1028A00063646566000000003031323334353637FA
:1028B000383941424344454600000000600700D4D7
:1028C000062708F1070020F00700F0E80223804601
:1028D00003F0004C5FEA0C0001D097A009E020054E
:1028E00001D596A005E0E00701D095A001E0AFF288
:1028F0004C001390307823F0004365280CD006DCA0
:10290000452809D046281DD047287FD13BE06628BE
:1029100018D067287AD136E00021112F01DB112071
:1029200000E0781CCDE9000104A90CA8FFF7EEFC3B
:10293000DDE90D010C9A4FF0000B07F1010910922F
:1029400000914EE04FF000400097CDE9011004A93E
:102950000CA8FFF7DBFCDDE90D020C9B0F994FF093
:10296000000B91461093009211B9791C00EB0109FC
:10297000B7EB090003D4C0F1FF3B07F10109A9EB54
:102980000700019042E0012F00DA01270021112FFA
:1029900001DD112000E03846CDE9000104A90CA8B2
:1029A000FFF7B4FCDDE90D010C9A00914FF0000B2C
:1029B000B946109221070FD4009A4A4503DA91468E
:1029C00001E0A9F10109B9F1010F05DD109AA9F1A2
:1029D0000101515C3029F4D0B84202DA10F1040F41
:1029E00003DA0121CDE9011010E0002803DC834463
:1029F000A9EB000102E0411C494500DD8946A0EB3E
:102A00000B00401C01904FF000400290200705D4BD
:102A10000198484502DB4FF0FF30019000208DF80F
:102A20004B0002980DF14B07B0F1004F25D002206A
:102A30000C902B200D90029800280CDA4042029056
:102A40002D200D9007E00A210298FDF7C2FB3031DE
:102A5000029007F8011D0C99481E0C900029F2DC29
:102A600002980028EFD1791E0D980870307800F098
:102A7000200040F0450007F8020D11A8C01BC01D42
:102A800002901398007800B1012000EB0901019831
:102A900001EBE071029801440398401A401E039034
:102AA000E00306D453462146179A039800F05CF8D9
:102AB00005441398007818B15246179990476D1C39
:102AC000E00323D553462146179A039800F04CF8AB
:102AD00005441BE0BBF1000F07DB0098584504DDFF
:102AE0001098179910F80B0001E017993020524602
:102AF000904701980BF1010B401E05F10105019073
:102B000004D12E205246179990476D1CB9F100014F
:102B1000A9F10109DEDC05E017F8010B524617990F
:102B200090476D1C0299481E02900029F4DC534620
:102B30002146179A03989EE62D0000002B00000006
:102B4000200000002DE9F041044600251E461746EE
:102B5000880404D405E039462020B0476D1C641E6B
:102B6000F9D52846BDE8F0812DE9F041044600255D
:102B70001E469046C80301D5302700E02027880470
:102B800004D505E041463846B0476D1C641EF9D5B2
:102B90002846BDE8F0814A68002A06D00A68531C1E
:102BA0000B6010704868401E4860704710B5FDF714
:102BB00087FE040029D0FDF7EBFA002825D013A1E9
:102BC0002046FDF7D3FAB8B114A12046FDF7CEFA9E
:102BD000B8B1204600F022F910B1012803D010E06E
:102BE000FDF792FD01E0FDF797FD00231A460FA1C6
:102BF00011A0FDF7F1FE04E02046FDF7C9FA6428B4
:102C000003D9BDE81040FDF791BD10BD2B4D5154C7
:102C100054535542524543563A00000073656E7353
:102C20006F722F636F6E74726F6C000072656365F4
:102C3000697665640000000073656E736F722F73B0
:102C400074617475730000000FB44FF4807100B5A7
:102C5000C1B043AB6846429AFFF71EFB6846FDF7DA
:102C600097FA82B24FF47A7369460348FEF765FF1C
:102C700041B05DF814FB0000680300202DE9F74F18
:102C80004D4C064682B0207800286AD10120207081
:102C900041024A48FDF75FFA4FF4807529464848DB
:102CA000FDF759FA022247A13046FDF778FA33467C
:102CB00008B145A200E046A229464148FFF7D2FAF2
:102CC0003F4D2846FDF764FA82B24FF47A732946E5
:102CD0004148FEF732FF002108B1217041E08846EB
:102CE000FEF746F8814600265AE034484FF0640B60
:102CF0008519A6F2FF104742FEF73AF80095824682
:102D0000002508E000983223411901223248FEF7DD
:102D1000BBFE00B96D1CBD4205D2FEF729F8A0EB41
:102D20000A015945EED3002D37D024492E4401F82D
:102D30000680039820B101462048FDF717FA00BB32
:102D400026A11E48FDF712FAD8B925A11B48FDF7A8
:102D50000DFA20B924A11948FDF708FA28B184F822
:102D60000080012005B0BDE8F08F21A11348FDF7D8
:102D7000FDF920B922A11148FDF7F8F910B10220A0
:102D8000607006E021A10D48FDF7F0F928B102209E
:102D9000A07084F800800020E4E70A20FDF7E0FE40
:102DA000FDF7E6FFA0EB0901049881429DD384F86A
:102DB00000800220D6E700001C0000202000002038
:102DC0002002002041540000415425730D0A0000E8
:102DD00025730D0A00000000B00300204F4B0000D7
:102DE0004552524F520000004641494C000000003D
:102DF0005749464920434F4E4E45435445440000F1
:102E00005749464920474F54204950004D5154548A
:102E1000434F4E4E454354454400000010B50AA1AF
:102E2000FDF7A4F94FF0FF3440B12C21FDF7C6F9AE
:102E300020B14078302803D0312803D0204610BD7F
:102E4000002010BD012010BD2B4D5154545355424C
:102E5000524543563A00000008B5FDF797FFFEF7CC
:102E60008FFFFEF7BCFEFDF75FFD00B1FEE728A176
:102E70002AA0FDF7DBFC18B94FF49670FDF739FC7A
:102E8000274D41F2883600BFFDF772FF0446FDF77B
:102E900021FD02280DD02868201AB04233D91CA188
:102EA0001EA0FDF7C3FC10B9C820FDF722FC2C6062
:102EB00029E0FDF709FD022816D06868201AB04203
:102EC00021D918A0009017A317A240F25B711CA093
:102ED000FDF73EFC30B900211DA0FDF7A9FDC8207B
:102EE000FDF707FC6C600EE0FFF760FEA86843F694
:102EF0009821201A884206D900231A4618A123A037
:102F0000FDF76AFDAC603220FDF72AFEBCE7000049
:102F10004878683230303130353233004858480014
:102F2000000000200000000053544D33325F436F17
:102F30006E74726F6C6C65725F303031000000002F
:102F40003139322E3136382E3133372E33340000BA
:102F500073656E736F722F636F6E74726F6C0000A7
:102F60005374617475733A4F6E6C696E655F446536
:102F7000766963653A53544D33325F436F6E7472B2
:102F80006F6C6C65725F30303100000073656E737A
:102F90006F722F7374617475730000000102020375
:102FA0000405060708090A0B0C0D0E0F101000008F
:102FB00000000000000001020304060708090000E9
:102FC0000000010203040000E82F000800000020B8
:102FD00020000000EC22000808300008200000203B
:102FE000D8070000FC2200080000000000000000DC
:102FF00000000000010000001000000000000000C0
:0830000000127A00000000003C
:04000005080000ED02
:00000001FF
