:020000040800F2
:10000000283C00209D01000863420008B930000828
:1000100061420008E10A0008C15200080000000027
:1000200000000000000000000000000005010008C2
:10003000C10C00080000000049010008314F000811
:10004000B7010008B7010008B7010008B7010008B0
:10005000B7010008B7010008B7010008B7010008A0
:10006000B7010008B7010008B7010008B701000890
:10007000B7010008B7010008B7010008B701000880
:10008000B7010008B7010008E5090008B70100083A
:10009000B7010008B7010008B7010008B701000860
:1000A000B7010008D94F0008B7010008B7010008E0
:1000B000B7010008B7010008B7010008C9300008FF
:1000C000BD300008B7010008B7010008B7010008FB
:1000D000B7010008A9520008B5520008B70100088E
:1000E000B7010008B7010008B7010008DFF810D019
:1000F00000F0E8FB00480047B15C0008AFF3008067
:10010000283C0020224B19680868B0E8F00F80F303
:100110000988BFF36F8F4FF0000080F311884EF015
:100120000D0E70470000000006480068006880F36C
:10013000088862B661B6BFF34F8FBFF36F8F00DFE1
:1001400000BF00BF08ED00E0EFF30980BFF36F8F41
:100150000F4B1A6820E9F00F106008B54FF05000FF
:1001600080F31188BFF34F8FBFF36F8F06F058FBFA
:100170004FF0000080F31188BDE808401968086856
:10018000B0E8F00F80F30988BFF36F8F704700BFAE
:100190002C000020EFF305807047000006488047E0
:1001A00006480047FEE7FEE7FEE7FEE7FEE7FEE75C
:1001B000FEE7FEE7FEE7FEE7D54F0008ED0000088A
:1001C000202A04DB203A21FA02F00021704721FAAC
:1001D00002F3D040C2F12002914008431946704713
:1001E00040EA01039B0703D009E008C9121F08C0B9
:1001F000042AFAD203E011F8013B00F8013B521E39
:10020000F9D27047D2B201E000F8012B491EFBD2AF
:1002100070470022F6E710B513460A460446194611
:10022000FFF7F0FF204610BD30B505462A460B46C5
:1002300012F8010B13F8014B08B1A042F8D01CB121
:10024000002802D06D1CF1E7284630BD421C10F892
:10025000011B0029FBD1801A7047F0B480EA01022B
:10026000D40F4200B2EB410F02D2024608461146BB
:100270004A0042D0C30DDDB2C1F3C752AD1A202DE2
:1002800035DAC1F3160141F4000204B15242C5F15E
:10029000200602FA06F12A411044B3EBD05F23D0C6
:1002A000C4B1012DA0EBC35009DCF0BC4FF00042FB
:1002B00002EAC352DBB200F5000000F01DB94000B5
:1002C00000F1807000EBC350A0F1807040EAD17063
:1002D000490009E0490841EAC071A0EBC35000F5AC
:1002E0000000400800EBC350F0BC00F0FCB86142D5
:1002F000012202EB4101001BF6E7F0BC704781F0E0
:100300000041AAE780F00040A7E780EA010210B5AB
:1003100002F00043400022D04A001FD0010E01EB42
:100320001261C0F35600C2F3560240F4000042F4DA
:100330000002A0FB022000047F39140400D0401CFE
:1003400050EA124001D44000491EC2B20C0604EB30
:10035000D010401C4008802A02D003E0002010BDCD
:1003600020F00100002900DA0020184310BD30B44D
:1003700080EA010202F0004530F0004221F0004026
:1003800013D090B1C30DD40DC2F31601C0F3160003
:10039000E41A41F4000140F400027D34914201D39B
:1003A000641C00E04900002C02DA30BC00207047D9
:1003B0004FF400000023914201D3891A03434008FF
:1003C0004FEA4101F7D151B1914202D14FF00041C2
:1003D00005E002D24FF0010101E06FF0010103EBF3
:1003E000C450284430BC00F07EB896230022114649
:1003F00000F082B820F00040C10DC0F3160040F4B8
:1004000000007F2901DA00207047962903DCC1F142
:100410009601C840704796398840704700F0004206
:1004200030F000400AD0C10D01F56071C0F3160034
:1004300042EA0151C20840071143704700200146BB
:1004400070470000002801DBC0F10040002901DBFB
:10045000C1F100418142704730B50B460146002092
:100460002022012409E021FA02F59D4205D303FA76
:1004700002F5491B04FA02F52844151EA2F10102F7
:10048000F1DC30BD2DE9F05F0546002092469B4629
:1004900088460646814640241BE02846414647469A
:1004A0002246FFF78DFE53465A46C01A914110D39B
:1004B00011461846224600F017FA2D1A67EB01087C
:1004C0004F4622460120002100F00EFA17EB0009EA
:1004D0004E41201EA4F10104DFDC484631462A4685
:1004E0004346BDE8F09F0029A8BF7047401C490063
:1004F00008BF20F00100704710B4B0FA80FC00FA89
:100500000CF050EA010404BF10BC704749B1CCF1B3
:10051000200421FA04F411FA0CF118BF012121433F
:100520000843A3EB0C01CB1D4FEA00614FEA1020FA
:1005300042BF002010BC704700EBC350104400299C
:10054000A4BF10BC7047401C490008BF20F0010048
:1005500010BC70472DE9FE4F804681EA0300C00FB2
:100560000C46009021F0004123F00045B8EB02005A
:10057000A94105D24046214690461C460B460246FC
:1005800023F00040104347D0270DC7F30A00C3F300
:100590000A510290401A019040286BDAC3F313000D
:1005A00040F4801B0098924620B10023D2EB030A4E
:1005B00063EB0B0B01985946C0F14002504600F026
:1005C00093F906460D4650465946019A00F09BF9AC
:1005D00010EB08006141002487EA115284EAE773B6
:1005E0001A4340D0009A62B3019A012A4FEA075297
:1005F00015DC001B61EB02014FF0004202EA0752DA
:10060000CDE90042001C41F5801132462B4600F036
:100610009BF903B0BDE8F08F40462146F9E7001B87
:1006200061EB0201001C41F5801300185B412018AA
:10063000A2F5001747EB030140EAD570B6196D41EA
:1006400011E06D084FEA360645EAC0754FEA0752D9
:10065000001B61EB0201001C41F5801149084FEAC3
:1006600030000019514132462B4603B0BDE8F04F2F
:1006700000F05BB90098012240000023D0EB020299
:1006800063EBE073009821464FEAE074B8EB00009A
:1006900061EB0401E9E783F000435BE781F000418F
:1006A00058E72DE9FE4F81EA030404F0004421F0ED
:1006B000004100944FF0000B23F0004350EA010486
:1006C0005ED052EA03045BD0C3F30A54C1F30A5567
:1006D0002C44A4F2F3340194A0FB0254C1F313019F
:1006E00041F48011C3F3130343F4801301FB02446C
:1006F00000FB034E840A970A44EA815447EA835771
:10070000A4FB076802958D0A05FB07854FEA932C29
:1007100004FB0C542705029D4FEA065847EA16379A
:10072000B5EB08056EEB070C870E920E47EA8117B2
:1007300042EA8312A7FB0201B6EB0B0164EB000453
:100740002B0D43EA0C335E1844EB1C50DA4651463D
:10075000E7FB0201C5F313044FEA0B3343EA1453DA
:100760004FEA0432019C43EA0603A4F10C0402940C
:10077000009CCDE900B400F0E7F803B0BDE8F08FCD
:1007800000200146F9E72DE9F04D81EA030404F069
:10079000004B21F0004514464FF0000A23F00041C1
:1007A00050EA050220D054EA01021DD0C5F30A57D1
:1007B0000246C5F31303C1F31300C1F30A5640F414
:1007C000801543F48013A7EB0608101BD64608F2E9
:1007D000FD3873EB050002D308F1010801E092181F
:1007E0005B41B8F1000F03DA00200146BDE8F08D4F
:1007F00000204FF48011064684460EE0171B73EB71
:10080000050705D3121B63EB050306434CEA010CF5
:1008100049084FEA300092185B4150EA0107EDD1D8
:1008200052EA030012D082EA040083EA0501084379
:1008300005D0101BAB4106D20122002306E00022A6
:100840004FF0004302E06FF0010253101AEB060074
:100850004CEB085110EB0A0041EB0B01BDE8F04DE9
:1008600000F063B8C1F30A52C1F3130140F2FF3341
:1008700041F480119A4202DA00200146704740F2AA
:1008800033439A42A2F2334202DC5242FFF798BC51
:1008900000F02AB830B5041E71F1000404DB4FF0FB
:1008A0000044404264EB0101141E73F1000405DBB7
:1008B0001C464FF00043524263EB0403994208BFC9
:1008C000904230BD064C074D06E0E06840F0010361
:1008D00094E8070098471034AC42F6D3FFF70AFCBF
:1008E0005076000870760008202A04DB203A00FACF
:1008F00002F1002070479140C2F1200320FA03F377
:10090000194390407047202A06DBCB17203A41FA62
:1009100002F043EAE07306E041FA02F3D040C2F18C
:100920002002914008431946704710B5141E73F118
:10093000000408DA401C41F1000192185B411A439F
:1009400001D120F0010010BD2DE9F04D92469B46EB
:1009500011B1B1FA81F202E0B0FA80F22032904691
:10096000FFF7C2FF04460F4640EA0A0041EA0B01C6
:1009700053465A46084313D0114653EA010019D092
:10098000C8F140025046FFF71BFC05460E46504694
:1009900059464246FFF7A8FF084305D0012004E06E
:1009A00020463946BDE8F08D0020054346EAE07652
:1009B0002C4337430A986305E40AA0EB08000022A1
:1009C000FD0A44EA47540A3002D500200146E9E70F
:1009D000010510196941DDE9084500196941BDE8C3
:1009E000F04DA2E7014800F0FBBB0000AC34002052
:1009F00070B5044600688168C943C90717D181688A
:100A000021F00101816000F0DBFF05460AE000BF34
:100A100000F0D6FF401B022804D920688068C0433C
:100A2000C00706D020688068C043C007F0D000200F
:100A300070BDA06A40F01000A062E06A40F00100C2
:100A4000E062012070BD0000F8B500260446009663
:100A500000688168C943C9072DD0816841F0010150
:100A60008160164816490068B0FBF1F000E0401EB6
:100A700000900028FBD100F0A3FF054616E000BF60
:100A800000F09EFF401B022810D920688068C043F8
:100A9000C0070BD0A06A40F01000A062E06A40F0EE
:100AA0000100E06284F824600120F8BD20688068BD
:100AB000C043C007E4D10020F8BD0000280000209A
:100AC00040420F000EB569460090012001900520BC
:100AD0000290024800F002FB0EBD0000AC34002082
:100AE000FEE700000549064A0968B1FBF2F14143FF
:100AF0000920B1FBF0F0401EFDD270472800002015
:100B000040420F002DE9F04100261A4F07244FF014
:100B10000108002505E00120FFF7E4FF6D1C642DAE
:100B20001AD80121384600F041FF0028F3D02820D0
:100B3000FFF7D8FF0121384600F038FF012803D124
:100B400008FA04F03043C6B2002508E00120FFF7A0
:100B5000C9FF6D1C642D02D90020BDE8F081012180
:100B6000384600F023FF0128F0D0641ED1D530466E
:100B7000F3E70000000C01402DE9F047894682466A
:100B800000F072F80026364D05E00120FFF7AAFFBD
:100B9000761C642E3FD80121284600F007FF01286B
:100BA000F3D0002605E00120FFF79CFF761C642EA1
:100BB00031D80121284600F0F9FE0028F3D00026A4
:100BC00005E00120FFF78EFF761C642E23D801215B
:100BD000284600F0EBFE0128F3D0FFF793FF60F307
:100BE00007048046FFF78EFF054665F30F24FFF7E5
:100BF00089FF60F317440746FFF784FF064666F354
:100C00001F64FFF77FFF014608EB0500BA19104487
:100C1000C0B2814202D00020BDE8F0872846FFF72D
:100C2000E4FB104E3146FFF770FB0546E0B2FFF7DC
:100C3000DCFB2946FFF711FBC9F80000200EFFF787
:100C4000D4FB3146FFF761FB0546C4F30740FFF7CD
:100C5000CCFB2946FFF701FBCAF800000120DBE7C7
:100C6000000C0140CDCCCC3D2DE9FF41012401AA6F
:100C7000002503260094114F82E87000694638462B
:100C800000F0A4FD00220121384600F094FE44F259
:100C90005060FFF727FF01221146384600F08BFE17
:100CA0001E20FFF71FFFCDE90246CDE9004569464A
:100CB000384600F08BFDBDE8FF810000000C0140CC
:100CC00070470000F0B5C1B0124C0E460746012136
:100CD00046986170009010A101A804F065FB40F6F1
:100CE000B83101A800F098F9002558B933463A46C2
:100CF00014A101A804F058FB43F6982101A800F0C4
:100D00008BF918B16570012041B0F0BD0220607010
:100D10000020F9E79C00002041542B4D51545455BC
:100D20005345524346473D302C312C222573222C0B
:100D3000222573222C222573222C302C302C2222A7
:100D40000000000041542B4D515454434F4E4E3D32
:100D5000302C222573222C25642C310070B5124CC6
:100D60000646A0B001200D46207040F6B8310FA015
:100D700000F052F94FF47A7000F016FD2B4632461F
:100D80000DA1684604F010FB44F62061684600F0AF
:100D900043F920B100202070012020B070BD022056
:100DA00020700020F9E700009C00002041542B43F4
:100DB000575141500000000041542B43574A4150C5
:100DC0003D222573222C2225732200000148407801
:100DD000704700009C00002070B54FF4FA610BA032
:100DE00000F01AF90C4C002560B90CA10D48FFF772
:100DF0001BFA38B90CA10B48FFF716FA10B1022004
:100E0000207000E02570207870BD000041542B4315
:100E1000574A41503F0000009C0000204E6F204187
:100E2000500000006C3500202B43574A41503A00D7
:100E300070B500F0B3F800244FF4FA656E1029463F
:100E40000CA000F0E9F838B1022C10D0304600F0C8
:100E5000ABFC641C032CF2DB294607A000F0DCF895
:100E600040F6B83106A000F0D7F8002800D00120E5
:100E700070BD0000415400004154453000000000A6
:100E800041542B43574D4F44453D310010B50C4C58
:100E9000ADF5027D6478022C03D001200DF5027DB2
:100EA00010BDCDE900230B46024606A102A804F0BE
:100EB0007BFA41F2883102A800F0AEF8EEE70000BC
:100EC0009C00002041542B4D5154545055423D300C
:100ED0002C222573222C222573222C25642C256498
:100EE00000000000F8B5064600F06AFD0546002443
:100EF0004FF400711C48FFF78CF92EE01A480A23C2
:100F000001226946483802F02DF830BBB4F5FF7F66
:100F100023D815489DF800100155641CA4B2002187
:100F2000015512A1FFF780F9A8B911A10E48FFF7EA
:100F30007BF920B910A10C48FFF776F908B1012020
:100F4000F8BD0FA10848FFF76FF920B910A10648B6
:100F5000FFF76AF908B10020F8BD00F031FD401B31
:100F6000B042CBD30220F8BD6C3500204F4B0000BF
:100F70004552524F520000004641494C00000000CB
:100F80005749464920434F4E4E454354454400007F
:100F90005749464920474F542049500038B50F4D16
:100FA0004FF4807400222146284600F004FD4FF4DF
:100FB000FA7000F0F9FB01222146284600F0FBFC04
:100FC00040F6B83000F0F0FB0A23012269460448DD
:100FD00001F0C8FF0028F7D038BD0000000801402C
:100FE0002435002000B5C1B0024608A1684604F0CF
:100FF000DBF96846FFF72AF982B24FF47A73694643
:10100000044802F008F841B000BD000025730D0A45
:10101000000000002435002010B50C46FFF7E2FF69
:101020002046BDE81040FFF75DBF00002DE9FF4FEF
:10103000EDB09946DDE97AAB15460C4600F0C0FCF0
:101040004FF47A71B0FBF1F82846FFF7E7F906464E
:101050000F462046FFF7E2F904460D466D98FFF76C
:10106000DDF9CDE906B88DE8F0060B4602460649E3
:1010700008A804F099F941F2883108A8FFF7CCFFDD
:1010800071B0BDE8F08F00006C75000800B50A4A29
:10109000C1B05278022A02D0012041B000BD0B46F7
:1010A000024606A1684604F07FF941F2883168469D
:1010B000FFF7B2FFF1E700009C00002041542B4DE8
:1010C0005154545355423D302C222573222C256413
:1010D0000000000072B6FEE770470000F8B500247B
:1010E000009490F824202546012A12D0012280F88D
:1010F00024204A681F23072A0DD20668776B521EE8
:1011000002EB820293409F430B6893401F43776337
:1011100019E00220F8BD06680D2A0AD2376BD21FEB
:1011200002EB820293409F430B6893401F43376357
:1011300009E0F76A0D3A02EB820293409F430B6885
:1011400093401F43F7620A68072306680A2A0AD3F6
:10115000F7680A3A02EB420293409F438B68934040
:101160001F43F76008E0376902EB420293409F4358
:101170008B6893401F4337610A68102A01D0112AF7
:1011800020D1124B02689A4217D193681B0219D4DE
:10119000936843F4000393600968102912D10C4945
:1011A0000C4A0968B1FBF2F101EB8101490000E052
:1011B000491E00910029FBD104E0816A41F0200121
:1011C0008162012480F824502046F8BD00240140AB
:1011D0002800002040420F0070470068C06C704734
:1011E00070B50446006806684568A90625D5B107AC
:1011F00023D5A16AC90603D4A16A41F40071A16292
:101200008168C1F34241072910D1217B71B941683E
:1012100021F020014160A06A20F48070A062A06AE1
:10122000C00403D4A06A40F00100A0622046FFF78A
:10123000D3FF21686FF01200086028062ED57007D2
:101240002CD5A06AC00603D4A06A40F40050A06266
:1012500020688168C1F30231072909D04168490536
:1012600015D48168C1F34241072910D1217B71B99E
:10127000416821F080014160A06A20F48050A062A2
:10128000A06AC00503D4A06A40F00100A062204615
:10129000FFF722FF21686FF00C00086068060CD58C
:1012A000F0070AD0A06A40F48030A062204600F027
:1012B00093F821686FF00100086070BD2DE9F041DE
:1012C0004FF0000704003D467ED0A06A002628B9F2
:1012D000E66284F82460204600F080F82046FFF79C
:1012E00087FBA16AC90600D420B1A06A40F01000B3
:1012F000A06269E0A16A21F4885141F00201A16273
:101300006268E169237B0A4347EA43010A43A16813
:101310004FF48077B94209D0012907D05FF000016E
:1013200094F814C0BCF1010F02D00AE03946F7E787
:10133000F3B1A36A43F02003A362E36A43F001031D
:10134000E3622368D3F804C02CF4694C4CEA010C26
:10135000C3F804C021688B68DFF870C003EA0C038F
:1013600013438B60A168B9420BD0012909D00CE06E
:10137000DFF85CC0A3690CEB43330B4343F400611B
:10138000DFE7218A0D05A5F580152168CB6A23F4D6
:1013900070032B43CB62216889680E4B1940914240
:1013A00008D1E662A16A21F0020141F00101A162C7
:1013B000BDE8F081A06A20F0020040F01000A062B9
:1013C000E06A40F00100E0620120F1E7FDF7E1FF93
:1013D00000E0FFFFFE0E1FFF7047000000B585B064
:1013E0000021009101910291039100681249884205
:1013F00020D11248816941F400718161816901F451
:1014000000710491816941F004018161806969463C
:1014100000F004000490012000900320019008488F
:1014200000F0D4F900220721122000F0A9FE1220BA
:1014300000F098FE05B000BD0024014000100240FD
:10144000000801402DE9F84300270D4604460097A7
:1014500000F0B6FA804620688168C90508D5A06A00
:1014600040F02000A06284F824700120BDE8F883D9
:101470004168C90503D4C06A10F4700F2AD0022055
:1014800000F0B0FE3B490968B1FBF0F62068036943
:1014900039490B424FEA61014FEAA1121FD1C368DB
:1014A0004FEA611C13EA0C0F19D103690B4225D1D5
:1014B000C068104222D1142023E0681C0AD02DB14C
:1014C00000F07EFAA0EB0800A84203D9206800686B
:1014D000800725D5206800688007EED52DE00369D8
:1014E0000B4202D1C168114206D0026923490A4267
:1014F00006D1C068084203D1542002E0292000E050
:10150000FC204643009816E0681C11D02DB100F075
:1015100057FAA0EB0800A8420AD90098B04207D2B7
:10152000A06A40F00400A06284F8247003209DE7C4
:101530000098401C0090B042E6D321686FF0120082
:101540000860A06A40F40070A06220688068C0F360
:10155000424007280CD1207B50B9A06A20F480704B
:10156000A062A06AC00403D4A06A40F00100A06297
:1015700000207BE72800002024499224499224007F
:1015800070B5044690F8240001280DD0012084F89D
:1015900024002046FFF758FA02004FF0000005D063
:1015A00084F82400104670BD022070BDA16A40F28C
:1015B0000123994341F48071A1621F4D23681F49A3
:1015C000AB4218D10E6816F4702F14D0A66A46F4F8
:1015D0008016A6620E68760505D5A66A26F4005622
:1015E00046F48056A662A66AF6040AD5E66A26F094
:1015F0000606E66206E0A66A26F48016A6625E6823
:10160000E9E7E06284F824006FF0020018602068C7
:101610008368C3F34243072B05D1A84208D1096868
:1016200011F4702F04D0816841F480118160B9E712
:10163000816841F4A001F9E7002801400424014039
:1016400010B5044690F82400012807D0012084F842
:1016500024002046FFF7CCF910B107E0022010BDAE
:10166000A16A21F4885141F00101A162002184F8AE
:10167000241010BD10B5040002D0607910B106E04E
:10168000012010BD00202071204600F005F8012047
:101690006071002010BD000008B50068064988424E
:1016A00008D10648416941F040014161406900F0BC
:1016B0004000009008BD00000030024000100240D1
:1016C00010B590F821100022022905D00421816371
:1016D00080F82020012010BD01680B6823F00E0364
:1016E0000B6001680B6823F001030B6090F8403039
:1016F000C46B012101FA03F3636080F8211080F8C4
:101700002020104610BD000010B590F821100024D4
:10171000022903D00421816301243DE001680A68A5
:1017200022F00E020A6001680A6822F001020A60D3
:101730001A4A0168914201D1012121E0174A14326D
:10174000914201D110211BE0144A2832914201D16B
:10175000891515E0114A3C32914201D189140FE0FC
:101760000E4A5032914202D14FF4803108E00B4AC8
:101770006432914202D14FF4801101E04FF0807148
:10178000064A083A5160012180F82110002180F8B2
:101790002010416B01B18847204610BD080002406F
:1017A00090F821007047000070B5044600F008F979
:1017B0000546601C02D004480078044400F000F99B
:1017C000401BA042FAD370BD1C0000202DE9F84F49
:1017D000DFF8B8910024A9F1040B23460F2709F183
:1017E000040AABF1040EC9E00125A5402A40AA4233
:1017F0007DD1674ED1F804C0ACEB0608B44532D0B9
:1018000014DCBCF1030F3AD009DCBCF1000F2AD084
:10181000BCF1010F1CD0BCF1020F31D11DE0BCF1B5
:10182000110F17D0BCF1120F2AD119E0B8F5881F9B
:1018300019D006DCB8F5803F15D0B8F5801F1FD150
:1018400011E0B8F5001F0ED0B8F5041F18D10AE05A
:10185000CB6815E0CB681B1D12E0CB6808330FE0A6
:10186000CB680C330CE08B682BB1012B4FF00803D5
:1018700003D0456104E0042302E0056100E0002399
:10188000FF2A01D8064601E000F104064FEA84056C
:1018900001D9A5F12005D6F8008007FA05FC28EA51
:1018A0000C0803FA05F548EA0508C6F800804D68FB
:1018B000ED0062D5374DAE6946F00106AE61AD6907
:1018C00024F0030605F001050095334D06EB050CE9
:1018D000DCF80850A607360F07FA06F825EA0805CF
:1018E000DFF8B880404503D14FF0000817E044E02E
:1018F000DFF8AC80404502D14FF001080FE0DFF87F
:10190000A480404502D14FF0020808E0DFF898803B
:10191000404502D14FF0030801E04FF0040808FAF7
:1019200006F848EA0508CCF808804D68D9F8006048
:10193000ED024D4601D5164300E096432E604D68FA
:10194000DAF80060AD02554601D5164300E0964333
:101950002E604D68DBF80060AD035D4601D516438F
:1019600000E096432E604D68DEF80060ED0375469A
:1019700001D5164300E096432E60641C0D682A468C
:10198000E5407FF431AFBDE8F88F00000804014066
:10199000000011100010024000000140000801404A
:1019A000000C014000100140001401408068084014
:1019B00000D0012070470AB1016170470904FBE7BC
:1019C00001488068704700001C0000207047704785
:1019D0002DE9F041016804464A694E6890F83E00DE
:1019E0000025D743FA050BD4F243D20508D46FF48F
:1019F000807201254A6121680A6842F400420A6047
:101A0000B90508D4F143C90505D422686FF4007103
:101A100045F002055161790525D4F143C90522D469
:101A2000638D94F83D10226B202808D13BB9212901
:101A300010D029290ED0282901D1212A0AD02268C4
:101A40006FF48061516145F00405102806D04028EC
:101A500004D008E0204601F0A3FF04E020680168FC
:101A600041F400710160380508D4F043C00505D485
:101A700021686FF4006045F008054861002D07D02B
:101A8000206C284320642046BDE8F04101F088BB6B
:101A9000BDE8F0812DE9F047026800215368C66A6D
:101AA00090F83E4090F83D50102C12D0402C10D0B1
:101AB000046C002C7DD05469E443A6077AD4DE433D
:101AC000B60577D4036C03B19169BDE8F04701F026
:101AD00043BF976951694FF42A0CC9435FEAC17843
:101AE0004FF02A4904D066452AD04E4528D010E050
:101AF000DE43B6050DD4C16A614501D1012103E081
:101B0000C16A494501D10821C162BDE8F04701F031
:101B100089BE0E0716D4DE43B60513D4416CC9B294
:101B20001161416B09B1896A29B9816B002907D01C
:101B3000896A002904D00068416841F4006141606D
:101B4000BDE8F0878E0706D4DE43B60503D4BDE8B2
:101B5000F04701F0BBBDFE43526876074FEA0252E0
:101B60001DD4002AECDB0A0608D4DA43520505D45A
:101B7000490705D5BDE8F04701F04CBD4907DFD462
:101B8000D9438905DCD4212D05D0402CD8D1BDE81E
:101B9000F04701F08DBEBDE8F04701F0F9BC002A26
:101BA000CEDB4A060BD4DA43520508D4490708D5E0
:101BB00001E00DE00EE0BDE8F04701F021BC49076F
:101BC000BED4D9438905BBD4BDE8F04701F0ABBB17
:101BD000916970E7E10606D4D943890503D4BDE8CD
:101BE000F04701F025BF2821212D27D0292D25D010
:101BF000650655D4DD436D0552D4640752D590F87F
:101C00003D30448D002C9BD01269446A2270426A98
:101C1000521C4262428D521E4285428D002A8FD153
:101C20002A2B8DD10268536823F4806353602222EB
:101C3000026380F83D1000F0E5F981E7250623D422
:101C4000DD436D0520D4640720D590F83D30448DE8
:101C5000002CF2D0446A24781461426A521C426219
:101C6000428D521E4285428D002AE6D1292BE4D1B5
:101C70000268536823F4806353602122026380F872
:101C80003D1000F0C0F95BE76107D6D4D943890560
:101C9000D3D4418D0029D0D0416A097811610AE07E
:101CA0006107CAD4D9438905C7D4418D0029C4D05E
:101CB0001169426A1170416A491C4162418D491E95
:101CC00041853DE77047000070B5040025D094F8C9
:101CD0003D00002520B984F83C50204600F054F91E
:101CE000242084F83D002068016821F00101016092
:101CF0002068016841F4004101602068016821F416
:101D00000041016000F0ECFB4D4A6168914201D84E
:101D10004C4900E04C49884201D2012070BD4B493A
:101D20002368B0FBF1F15E6826F03F060E435E606B
:101D30006368934206D94FF4967359434FF47A730C
:101D4000B1FBF3F12368491C1E6A26F03F063143BC
:101D500019626168914210D84900401EB0FBF1F24F
:101D6000521CC2F30B02042A01D2042022E0B0FB71
:101D7000F1F0401CC0F30B001CE0A268F2B301EBD1
:101D8000C10303EB0116431EB3FBF6F35B1C43F4E4
:101D900080431B0549D092B301EBC10202EB011154
:101DA000401EB0FBF1F0401CC0F30B0040F480403B
:101DB00040F400402168CA694CF6FF739A4310430F
:101DC000C861D4E9071001432068026822F0C0020C
:101DD00011430160D4E9030101432068826848F29D
:101DE000FF339A4311438160D4E905010843216818
:101DF000CA6822F0FF021043C86001E00EE016E05E
:101E00002068016841F0010101602564202084F808
:101E10003D00256384F83E50002070BD01EB410673
:101E2000431EB3FBF6F35B1CB3E70120C2E701EBF3
:101E30004101401EB0FBF1F0401CC0F30B00B7E7BE
:101E4000A086010080841E0000093D0040420F0072
:101E500070477047704700002DE9F84F1F469046C5
:101E60008A460446DDF82890FFF7AAFD054694F857
:101E70003D0020287FD119230122404920460095AA
:101E800001F0B0FE002876D194F83C00012872D011
:101E9000012084F83C0020680168C90703D101686B
:101EA00041F0010101602068016821F400610160D6
:101EB000212084F83D00102084F83E00002626648E
:101EC000C4F824806785608D20852D48E0622B460C
:101ED0004A465146204601F00DFB90B92068416901
:101EE0008069009036E02A464946204601F020FFEE
:101EF00050B1206C042804D12068016841F40071BD
:101F000001600120BDE8F88F606A216800780861EF
:101F1000606A401C6062618D491E6185218D491E89
:101F200089B2218522685369DB435B070BD451B129
:101F300000781061606A401C6062608D401E6085A0
:101F4000208D401E20852A464946204601F01EFE6F
:101F50000028CED1208D0028C5D154F83D0B016852
:101F600041F400710160202004F81E09E6776677CD
:101F70000020C7E7FFE70220C4E7000002001000CE
:101F80000000FFFF7047704710B586B00021009138
:101F90000191029103910068174988422AD1174C98
:101FA000A06940F00800A061A069694600F008003F
:101FB0000490C0200090122001900320039010484C
:101FC000FFF704FCE06940F40010E061E0690022E2
:101FD00000F40010049008211F2000F0D1F81F2009
:101FE00000F0C0F800220921202000F0C9F82020CC
:101FF00000F0B8F806B010BD0054004000100240D8
:10200000000C01407047704770B5040013D0216880
:102010004CF6CC400860216845F255500860D4E980
:10202000000141602168A0688860FFF7C9FC05468F
:1020300041F23C360DE0012070BD00BFFFF7C0FC4F
:10204000401BB04205D92068C068800701D003203A
:1020500070BD2068C0688007F0D121684AF6AA20C8
:102060000860002070BD00684AF6AA2101600020C7
:10207000704700000248816802781144816070470F
:102080001C000020074810B5016841F010010160F4
:10209000032000F095F8002000F006F800F03EF86C
:1020A000002010BD0020024000B5014687B000228C
:1020B000192000F065F8192000F054F813488169E0
:1020C00041F400618161806905A900F40060069017
:1020D000684600F0E5F900F013FA0D490D4AB0FB2F
:1020E000F1F10D48491E0260416040F2E7320021E3
:1020F000C0E90321816000F05DFC10B1012007B050
:1021000000BD054800F084FCF9E700000010024023
:1021100040420F00002C0140740300200F4808B516
:10212000816941F001018161816901F00101009142
:10213000C16941F08051C161C069002200F0805046
:1021400000900F21901E00F01BF80548416821F017
:10215000E06141F00071416008BD000000100240E4
:1021600000000140002809DB00F01F02012191401E
:102170004009800000F1E020C0F800117047000025
:10218000F0B40E4B1B680C46C3F30223C3F10705E2
:10219000042D00D90425191D072901D2002300E0D0
:1021A000DB1E012606FA05F1491E214099409E409A
:1021B000761E16403143F0BC03F00AB90CED00E086
:1021C000064900F0070208684FF6FF03184040EA8E
:1021D0000220034A10430860704700000CED00E045
:1021E0000000FA0510B501460020234C012922D039
:1021F000022939D010291DD161682268D20119D570
:102200001E48C1F38342C903805C0AD561681B4A3A
:10221000C1F34041921E515C194AB2FBF1F14843AF
:1022200001E0184948436168490203D44000032192
:10223000B0FBF1F010BD226AC2F30121012903D1E4
:10224000920701D5C80310BD022905D1626A920721
:1022500002D549F6404010BD0329FCD1216889030D
:10226000F9D54FF2244010BD00F04AF96168C1F37E
:102270008131491C4900DBE70010024080730008EF
:1022800000127A0000093D002DE9F8430546007868
:10229000354CC00754D0E0690026C00008D4E0697E
:1022A00040F08050E061E069012600F0805000902D
:1022B0002E480168C90512D40168804641F4807136
:1022C0000160FFF77DFB074605E000BFFFF778FBE5
:1022D000C01B642823D8D8F80000C005F6D5206AB2
:1022E00010F4407021D0A98801F4407181421CD0C3
:1022F000206A1F49012220F440700A6000220A600F
:102300002062C00711D0FFF75BFB074641F2883817
:1023100008E000BFFFF754FBC11B414502D9032071
:10232000BDE8F883206A8007F4D5206A696820F444
:102330004070084320621EB1E06920F08050E061E7
:102340002878800705D56068A96820F440400843D4
:1023500060602878C00605D56068E96820F48000D0
:10236000084360600020DBE700100240007000407E
:10237000400442422DE9F0470F46050061D0434E2C
:10238000306800F00700B84209D2306820F007003A
:1023900038433060306800F00700B84251D12868F7
:1023A0003B4C810712D5400703D5606840F4E060DC
:1023B00060602878000703D5606840F46050606072
:1023C0006068A96820F0F000084360602878C007C2
:1023D00028D06868012810D02168022810D0890709
:1023E00000292EDA616821F0030101436160FFF7E3
:1023F000E7FA804641F288390DE021688903EFE76A
:102400008901EDE7FFF7DCFAA0EB0801494502D9A5
:102410000320BDE8F0876068696800F00C00B0EB4D
:10242000810FEFD1306800F00700B8420BD9306857
:1024300020F0070038433060306800F00700B842F1
:1024400001D00120E5E72878400705D56068E968F4
:1024500020F4E060084360602878000706D56068D3
:10246000296920F4605040EAC100606000F058F82B
:102470006168084AC1F30311515CC840064908600D
:1024800006480068FFF710FE0020C2E70020024067
:102490000010024090730008280000202000002057
:1024A0000F2202600C4A536803F003034360536831
:1024B00003F0F0038360536803F4E063C360526881
:1024C0004FF4E06303EAD20202610448006800F0BE
:1024D0000700086070470000001002400020024022
:1024E0000448054900684968044AC1F30221515C67
:1024F000C84070472800002000100240A073000868
:102500000448054900684968044AC1F3C221515C86
:10251000C84070472800002000100240A073000847
:102520000E4A51680E4801F00C03042B11D0082B01
:102530000FD10C48C1F38343C903C05C0AD551686D
:10254000084AC1F34041921E515C054A5043B0FB1A
:10255000F1F0704704494843704700000010024002
:1025600000127A006E73000800093D002DE9F84F53
:10257000040070D02078C04DC00749D06868C0F30F
:102580008100012807D06868C0F38100022809D1C2
:102590006868C00306D52868800339D560680028BC
:1025A000E7D035E06068B0F5803F0BD010B1B0F5F2
:1025B000A02F11D0286820F480302860286820F4EB
:1025C000802002E0286840F480302860606890B184
:1025D000FFF7F6F906460AE0286840F480202860F4
:1025E000F0E700BFFFF7ECF9801B642873D8286878
:1025F0008003F7D50CE0FFF7E3F9064605E000BFDE
:10260000FFF7DEF9801B6428F0D828688003F7D430
:1026100020789A4E80074FF001094FF0000839D515
:10262000686810F00C0F07D06868C0F381000228BA
:1026300009D16868C00306D42868800714D52069CA
:10264000012808D110E02069B0B1C6F80090FFF76A
:10265000B7F9074605E00AE1FFF7B2F9C01B022807
:10266000C4D828688007F7D52868616920F0F80089
:1026700040EAC10028600DE0C6F80080FFF7A0F92D
:10268000074604E0FFF79CF9C01B022823D82868FE
:102690008007F7D4207800072CD57948A169D9B1F3
:1026A000C0F80090FFF78CF9074604E0FFF788F9BF
:1026B000C01B02280FD8686A8007F7D571484FF40D
:1026C000FA510068B0FBF1F0009000BF0098411E85
:1026D0000091FAD20EE080E0C0F80080FFF770F9B8
:1026E000074604E0FFF76CF9C01B022875D8686A3A
:1026F0008007F7D42078400760D5E8690027C0003C
:1027000008D4E86940F08050E861E869012700F0EA
:10271000805000905C480168C90513D40168834665
:1027200041F480710160FFF74BF9824606E000BF7B
:10273000FFF746F9A0EB0A0064284ED8DBF800004A
:10274000C005F5D5E06801280AD008B1052813D0E6
:10275000286A20F001002862286A20F0040002E0C4
:10276000286A40F001002862E06841F2883B98B195
:10277000FFF726F982460BE0286A40F00400286241
:10278000EEE700BFFFF71CF9A0EB0A0159455AD844
:10279000286A8007F6D50CE0FFF712F9824605E0BB
:1027A000FFF70EF9A0EB0A0159454CD8286A8007BB
:1027B000F6D41FB1E86920F08050E861E06988B381
:1027C0006968C1F38101022944D00228C6F86080FB
:1027D00004D0FFF7F5F8044638E034E0FFF7F0F8EE
:1027E000074604E0FFF7ECF8C01B02282BD8286846
:1027F0008001F7D4206AB0F5803F05D16868A168F0
:1028000020F4003008436860D4E90801084369688F
:1028100021F4741108436860C6F86090FFF7D0F89F
:10282000044606E025E000BFFFF7CAF8001B0228B7
:1028300009D828688001F7D51BE000BFFFF7C0F872
:10284000001B022802D90320BDE8F88F2868800108
:10285000F4D40EE00128F7D06868226A00F48031D1
:10286000914204D1616A00F47010884201D00120C5
:10287000EAE70020E8E700000010024000004242C2
:1028800080044242280000200070004070B504001F
:1028900009D0606A002540B125616561A56294F8A0
:1028A000510040B10CE0012070BD6068B0F5827F3E
:1028B000F4D0E561F2E784F85050204600F040F88B
:1028C000022084F851002068016821F04001016075
:1028D000A088218900F4827001F404410843A18991
:1028E00001F400610843217C01F002010843217DCD
:1028F00001F001010843218B01F400710843217F9D
:1029000001F03801084394F8201001F080010843D9
:10291000218D01F40051084321680860A069042159
:1029200001EA1040216848602068C16921F4006113
:10293000C1616565012084F85100002070BD000070
:1029400030B585B00024009401940294039400688B
:102950001449884223D11448816941F4805181612E
:10296000816901F480510491816941F00401816120
:1029700080690E4D00F004000490A0200090022019
:1029800001900320039069462846FEF71FFF402070
:10299000CDE90004694628460294FEF717FF05B00A
:1029A00030BD00000030014000100240000801402E
:1029B0007047704710B5040003D094F83D0010B183
:1029C00007E0012010BD002084F83C00204600F004
:1029D0001EF8022084F83D00211D206802F002FB51
:1029E000012084F8460084F83E0084F83F0084F813
:1029F000400084F8410084F8420084F8430084F8E1
:102A0000440084F8450084F83D00002010BD704764
:102A100090F83D10012901D001207047022180F873
:102A20003D100168CA6842F00102CA6000680B49A3
:102A3000884208D0B0F1804F05D00949884202D0C1
:102A40000849884204D1816801F00701062903D0B2
:102A5000016841F00101016000207047002C014035
:102A6000000400400008004070472DE9F041044692
:102A70000068C66805694FF00007A90713D5B107BC
:102A800011D5F91E01610120207720688069800737
:102A9000204602D0FFF7E8FF04E000F07EF8204671
:102AA00000F07CF82777680716D5700714D52168E1
:102AB0006FF004000861022020772068806910F41C
:102AC000407F204602D0FFF7CFFF04E000F065F81A
:102AD000204600F063F82777280715D5300713D56F
:102AE00021686FF008000861042020772068C06921
:102AF0008007204602D0FFF7B7FF04E000F04DF852
:102B0000204600F04BF82777E80616D5F00614D5D6
:102B100021686FF010000861082020772068C069E4
:102B200010F4407F204602D0FFF79EFF04E000F043
:102B300034F8204600F032F82777E80708D0F0078D
:102B400006D021686FF001000861204600F028F8E7
:102B5000280608D5300606D521686FF08000086188
:102B60002046FFF725FF680608D5700606D52168C0
:102B70006FF040000861204600F01CF8A8060AD556
:102B8000B00608D521686FF0200008612046BDE836
:102B9000F041FFF70EBFBDE8F081704770470000BD
:102BA00000680349884201D1FFF764BA704700000A
:102BB000002C01407047704770470000F8B501686D
:102BC00004460868CA684B6910F00F0F4FF0000503
:102BD00059D003F0010602F49077374365D0C1075E
:102BE00005D0D10503D5616C41F001016164410755
:102BF00005D5D90703D0616C41F0020161648107FA
:102C000005D5D90703D0616C41F004016164010767
:102C100007D502F02001314303D0616C41F0080177
:102C20006164616C00293AD0800604D5900602D513
:102C3000204602F042FA20684069616CC0F38010BF
:102C4000090700D460B3204602F010FA20684069FA
:102C5000400621D52068143050E8001F21F04001C3
:102C600040E80012002AF5D1E06BA8B16D4941633C
:102C7000E06BFEF749FD002811D0E06B416B01B01D
:102C8000BDE8F040084783060FD593060DD52046D2
:102C9000BDE8F84002F011BA2046FFF78DFFF8BDFD
:102CA0002046FFF789FF6564F8BD266B2023012EBF
:102CB0007CD1C6067AD5D60678D5086848680090D3
:102CC00048694FF00206400640D5E16B086840684D
:102CD0000004000CE8D0A28D8242E5D9E085886925
:102CE00020282DD020680C3050E8001F21F480717E
:102CF00040E80012002AF5D12068143050E8001F87
:102D000021F0010140E80012002AF5D120681430BA
:102D100050E8001F21F0400140E80012002AF5D1E0
:102D200084F84230256320680C3050E8001F21F001
:102D3000100140E80012002AF5D1E06BFEF7C0FC5C
:102D40006663A08DE18D401A81B22AE0A08DE18DED
:102D5000401A81B2E08D0028A6D00029A4D02268B4
:102D60000C3252E8000F20F4907042E80007002F68
:102D7000F5D12068143050E8002F22F0010240E81D
:102D80000027002FF5D184F84230256320680C30ED
:102D900050E8002F22F0100240E80023002BF5D16C
:102DA00066632046FFF707FFF8BDFFE705062BD552
:102DB000150629D594F841002128F5D1A068B0F571
:102DC000805F01D12069B0B1206A411C2162216875
:102DD00000784860E08C401E0004000CE084E3D1E1
:102DE0002068C16821F08001C1602068C16841F09D
:102DF0004001C160D8E7206A0088C0F3080048603D
:102E0000206A801C2062E5E74006CDD55006CBD570
:102E1000CA68204622F04002CA6084F8413000F0BF
:102E20004AF9C1E75D50000870B5040004D094F879
:102E30004100002510B106E0012070BD84F840502B
:102E4000204600F023F8242084F841002068C1685F
:102E500021F40051C160204602F090F92068016918
:102E600021F4904101612068416921F02A0141610A
:102E70002068C16841F40051C1606564202084F875
:102E8000410084F842006563002070BD70B586B0D3
:102E9000002400940194029403942E4E03682E495A
:102EA000022003222D4DB34226D18B6943F4804387
:102EB0008B618B6903F4804304938B6943F00403B3
:102EC0008B618969039201F0040104910102CDE94B
:102ED000001069462846FEF779FC2815CDE9000464
:102EE000694628460294FEF771FC0022062125203F
:102EF000FFF746F9252029E0194EB34228D1CB69C6
:102F000043F40033CB61CB6903F4003304938B6942
:102F100043F004038B618969039201F00401049179
:102F20000421CDE9001069462846FEF74FFC082031
:102F3000CDE900040120029069462846FEF746FCD0
:102F4000002205212620FFF71BF92620FFF70AF9AA
:102F500006B070BD0038014000100240000801407A
:102F6000004400402DE9F84F044690F842009A468C
:102F700016460D46202802D00220BDE8F88FB5B1D4
:102F8000AEB100206064222184F842102063FEF775
:102F900017FDA6858146E685A0684FF48058202756
:102FA000404501D1206920B12E46002529E00120AD
:102FB000E3E7002625E04B46002220212046CDF8FD
:102FC00000A002F037F918B184F842700320D4E76A
:102FD00026B1A06840451AD038B108E020684068A2
:102FE000C0F3080025F8020B08E0206978B12068DA
:102FF000406800F07F0000BF06F8010BE08D401E26
:10300000E085E08D0028D6D184F84270B5E72068CD
:103010004068F1E770472DE9F843044690F8410015
:10302000984616460D46202802D00220BDE8F883B7
:1030300085B17EB100206064212084F84100FEF754
:10304000BFFCA6848146E684A0682027B0F5805F97
:1030500002D003E00120E9E7206910B12E460025E7
:103060000EE000260CE08021204602F0E3F8A8B92B
:10307000C6B116F8010B21684860E08C401EE08460
:10308000E08C4B464FF00002CDF800800028EAD1DA
:103090004FF04001204602F0CDF840B184F8417075
:1030A0000320C3E735F8020BC0F30800E3E784F818
:1030B00041700020BAE77047FEE700000148FEF7C4
:1030C00087BC00006C3700200148FEF7E3BC00001D
:1030D0006C37002038B5406A002190F83D202B4B1A
:1030E00046F2A8141B68B3FBF4F3C3EBC30303EB72
:1030F000830300933BB15B1E009303681B689B0531
:1031000005D5009BF6E7036C43F020030364436B93
:1031100003B19962836B03B1996203681C6824F45C
:1031200080641C604185436B03B15963836B03B1B9
:10313000596303681C6824F001041C6090F83D404A
:103140002023602C0BD0282434EA02020FD080F810
:103150003D3080F83E1000BFFEF7B4FD38BD80F86A
:103160003D3080F83E100164FEF730FC38BD026847
:10317000136843F0010313600268136843F480632B
:103180001360016380F83D40E6E70000280000205E
:1031900000684169C943090601D4002101617047F3
:1031A00070B5044690F83D0094F83E10102901D007
:1031B000402906D1222804D121680A6822F400623D
:1031C0000A60282131EA00024FF000054FF0200686
:1031D00026D021684968090505D4602803D084F801
:1031E0003D6084F83E50256320684168090537D565
:1031F000416821F400614160606B90F821203C49F6
:10320000012A11D04163606BFEF77EFA38B3206863
:10321000016821F00101016084F83D60606B1CE0F1
:10322000256384F83D10DFE7A06B4163A06BFEF7D8
:103230006BFAA0B120684169C943490605D4006909
:10324000616A0870606A401C60622068016821F051
:103250000101016084F83D60A06B416B884710E07C
:1032600094F83D10602910D04169C943490605D43E
:103270000069616A0870606A401C60622046FEF75F
:1032800021FD206CC1071CD115E084F83D60256448
:103290004169C943490605D40069616A0870606ADA
:1032A000401C60622068016821F001010160204635
:1032B000FEF78CFBE5E7810703D4410701D4000743
:1032C00004D52068416821F4E061416094F83D0034
:1032D000216C49070BD5282809D10648E0622563EF
:1032E00084F83D6084F83E502046FEF7B1FD70BD85
:1032F000D53000080000FFFF01684A69D24352053B
:103300000FD46FF480624A61002140F8301F202200
:1033100042738173026942F0040202610173012069
:1033200070470020704710B5C26A438D0168042BB6
:1033300006D0438D032B08D0438D022B1DD012E005
:103340004A6822F480624A600CE04B6823F4806390
:103350004B60042A06D0022A04D001680A6822F4CD
:1033600080620A6001680969426A1170416A491CF9
:103370004162418D491E418510BD012A34D0102A79
:1033800032D0042A34D0022A32D00B6843F40073BE
:103390000B6001680969436A1970416A491C4162FE
:1033A000438D5B1E438503681B690B70416A491C92
:1033B0004162418D491E418501684B6823F4407389
:1033C0004B60202180F83D1090F83E300021402BCA
:1033D00080F83E1010D0082A02D0202A00D01221F6
:1033E0000163FEF736FD10BD0B6823F48063CFE761
:1033F0000B6843F48063CBE70163FEF7C3FD10BDA8
:1034000038B590F83D10222910D1C36A418D0329A7
:103410000DD901680969426A1170416A491C41620B
:10342000418D491E4185418D032906D038BDC26AB0
:10343000022A02D0012906D029B10068416821F48E
:103440008061416038BD2A4A46F2A8140021126802
:10345000B2FBF4F202EB8202009202682024009D8B
:103460006D1E009526D01568AD05F8D4156825F4B5
:10347000806515600268556825F4E065556002684E
:103480001269456A2A70426A521C4262428D521E7B
:10349000428580F83D4090F83E2080F83E10402A5A
:1034A00021D0082B02D0202B00D012210163FEF77F
:1034B000D0FC38BD036C43F020030364536823F44D
:1034C000E063536002681269436A1A70426A521CD0
:1034D0004262428D521E428580F83D4080F83E1087
:1034E000FEF7F0FB38BD0163FEF74CFD38BD000070
:1034F00028000020F8B50446C06A1E460D4617464F
:10350000082807D0012805D010F5803F02D0206B95
:10351000122804D12068016841F4807101601346CB
:1035200000224FF001112046009600F05BFB40B1F5
:1035300020680068C00502D54FF4007020640320A5
:10354000F8BD2069B0F5804F0ED00620216800EA52
:10355000D51040F0F000086133463A460B4920464A
:1035600000F088FB78B902E005F0FE0000E0E8B268
:1035700021680861054933463A46891F204600F014
:1035800079FB0028DCD00120F8BD00000800010014
:1035900010B5C26A90F83D1021290BD1418D51B16F
:1035A000416A026809781161416A491C4162418D92
:1035B000491E418510BD20230021082A13D0202A4E
:1035C00011D012F5803F0ED00268546824F4E064F4
:1035D00054601122026380F83E1080F83D3000BF35
:1035E000FEF738FC10BD0268546824F4E0645460AF
:1035F0000268146844F400741460016380F83D307C
:1036000090F83E2080F83E10402AE9D1FEF7BBFC3E
:1036100010BD000010B590F83D1090F83E30C26A21
:10362000048DB4B1212903D0402B11D122290FD10F
:10363000418DE1B390F83E10402942D0416A0268C2
:1036400009781161416A491C4162418D491E4185D9
:1036500010BD2129E8D120230021082A13D0202AD7
:1036600011D012F5803F0ED00268546824F4E06453
:1036700054601122026380F83E1080F83D3000BF94
:10368000FEF7E8FB10BD0268546824F4E06454605F
:103690000268146844F400741460016380F83D30DB
:1036A00090F83E2080F83E10402AE9D100E002E088
:1036B000FEF769FC10BD0068416821F4806141603B
:1036C00010BDBDE8104000F0F3B8000078B590F8E8
:1036D0003E50C26A046B90F83D6000230168222EC0
:1036E00073D1066D0EB9402D6FD0056D1DB90569FA
:1036F000B5F5404F1BD0458D95B3468D484D012EF5
:1037000020D0448D022C4DD00C6844F480640C60B1
:1037100001684C68240579D5AA4273D0012A71D07A
:10372000082A6FD0102A6DD0202A6BD06EE04A692B
:103730008A6900920A6842F480720A60016D491C2D
:10374000016578BDAA4214D10A6822F480620A6039
:1037500001684A68120504D50A6822F4806217E0FD
:10376000FFE74A698A6900920A6842F400720A60B7
:1037700050E0082A10D0202A0ED0122C0AD0042A99
:1037800003D0022A01D0102AE6D10A6842F48062EE
:103790000A603BE0012ADFD00A6822F480620A60F6
:1037A0000168DEE7042A11D0022A0FD0102A0DD0BA
:1037B0000C6844F400640C6001684C698C690094E6
:1037C0000C6824F480640C6008E025E00C6844F484
:1037D00080640C6001684C698969009101684C68DB
:1037E000240517D5AA4207D0012A05D0082A03D0FC
:1037F000102A01D0202A0DD14A6842F480524A6032
:1038000008E0FFE74A6842F480524A6001684A696A
:1038100089690091036578BD48698869009078BD21
:103820000000FFFF90F83E10402910D00169B1F56B
:10383000804F19D0016DA9B3016D012910D1416CE0
:103840005FF0F10201F4407142EAD11106E0016D2E
:103850000029416C05D0C9B241F001010068016145
:10386000704701F0FE01F9E790F83D102129416C05
:1038700009D0C9B241F0010102681161416B29B15F
:10388000896A49B902E001F0FE01F5E7816B002980
:10389000E6D0896A0029E3D00068416841F40061FC
:1038A00041607047FFE7416CF02201F44071CBE7C3
:1038B00010B590F83D10026D4AB1026D012A14D086
:1038C000026D022A16D0BDE81040FFF761BCC16C42
:1038D0000129816C02D0C1F3072108E00268C9B256
:1038E0001161016D891C016510BD816CC9B202684E
:1038F000116123E022291CD0428D0AB1212920D058
:10390000428D002AF0D12129EED101684A6822F4C3
:10391000E0624A6001680A6842F400720A600021AD
:103920000163202280F83D2080F83E10FEF72BFB3B
:1039300010BD01680A6842F480720A60016D491C7A
:10394000D1E7416A026809781161416A491C416204
:10395000418D491E418510BD38B50C4690F83D207B
:1039600000212825954302680B4605D051699169CD
:10397000009180F83C3038BD556825F4806555606D
:10398000E243540700D50121120601D5828900E0E7
:10399000028B80F83C3092B2FEF719F838BD000077
:1039A0002DE9F04190F83D300446C26A00212026FE
:1039B0001E4F00686FF48065082A01D0202A01D1CB
:1039C000282B04D0212B17D04561BDE8F081E76298
:1039D000426822F4E0624260206845612068026823
:1039E00022F480620260216384F83D6084F83E1016
:1039F0002046FEF72DFAE8E7E7622122226384F8E9
:103A00003D6084F83E10416821F4E0614160206827
:103A100045612068016821F4806101602046FFF75C
:103A2000B7FB2046FEF7EFFACFE700000000FFFFEC
:103A3000F8B590F83D6004460068416821F4E06103
:103A400041602068002541690091016841F0010151
:103A500001602068016821F480610160206841688C
:103A6000090520D5474F222E48D02A2E46D0616B1B
:103A7000096849686185618D19B1216C41F00401C3
:103A80002164416821F400614160606BFDF788FEAC
:103A9000012808D0606B4763606BFDF735FE10B1FD
:103AA000606B416B8847608D08B320684169C943EA
:103AB000490708D40069616A0870606A401C606246
:103AC000608D401E608520684169C943490608D45D
:103AD0000069616A0870606A401C6062608D401E07
:103AE0006085608D18B1206C40F004002064206C6B
:103AF00000B32046BDE8F840FFF752BBA16B096850
:103B000049686185618D19B1216C41F0040121641E
:103B1000416821F400614160A06BFDF741FE01287E
:103B2000C1D0A06B4763A06BFDF7EEFD0028BAD0B3
:103B3000A06BB6E72A2E06D12563282084F83D0025
:103B40002046FEF75FFA94F83D10202028290DD07A
:103B5000216B222901D0222E07D1256384F83D0054
:103B600084F83E502046FEF74DFAF8BD0649E16262
:103B7000256384F83D0084F83E502046FEF768F93E
:103B8000F8BD0000D53000080000FFFF70B51646F4
:103B90000D4604461EE02046FFF7AEFB08B10120AB
:103BA00070BD681C16D0FDF70BFF801BA84200D823
:103BB00085B920684069C04340070BD5002044F810
:103BC000300F20216173A073216941F02001216130
:103BD0002073E4E720684069C0434007DBD400203D
:103BE00070BD00002DE9F047984617460D46044683
:103BF000C1F30746DDF820902AE000BFB8F1FF3F8F
:103C000026D0FDF7DDFEA0EB0901414502D8B8F151
:103C1000000F1DD12068012E16D0806925EA000012
:103C20000004000C12D00020B84211D1002044F84A
:103C3000300F20216173A073216941F020012161BF
:103C400020730120BDE8F0874069E7E70120EBE73A
:103C50002068012E0AD0806925EA00000004000CCB
:103C600006D00020B842C9D00020EBE74069F3E756
:103C70000120F7E72DE9F047984616460D46044621
:103C80004FF000094FF0200AC1F3074723E02068F6
:103C90004069C043400515D42068016841F40071B3
:103CA000016021686FF480604861C4F8309084F846
:103CB0003DA084F83E90216C41F00401216484F819
:103CC0003C9021E0701C06D0FDF77AFEA0EB0800C6
:103CD000B04203D816B1012F1FD021E02068012F78
:103CE00015D0806925EA00000004000C18D000BF40
:103CF00044F8309F84F80DA084F80E90216941F0BB
:103D00002001216184F80C900120BDE8F087406912
:103D100025EA00000004000CEAD12068406901E0B7
:103D20002068806925EA00000004000CAFD1ECE7B0
:103D300070B516460D4604461EE02046FFF7DCFA35
:103D400008B1012070BD681C16D0FDF739FE801B3C
:103D5000A84200D885B920684069C04300060BD549
:103D6000002044F8300F20216173A073216941F0D5
:103D7000200121612073E4E720684069C043000608
:103D8000DBD4002070BD0000064910B5884200DD7C
:103D90000846FCF7B7FA0449FCF7B7FAFCF72AFB28
:103DA00080B210BD3333534000809743B0F17E5F43
:103DB00001DA002070470349884201DA0120704788
:103DC000022070470000204070B5060000D1012697
:103DD00000252C4608E000BF00F01EF805440A202C
:103DE000FDF7E2FC641CE4B2B442F5D33046FCF7C4
:103DF000FCFA04462846FCF7F8FA2146FCF7B7FA25
:103E00000349FCF782FABDE870400249FCF7AFBAFB
:103E10003333534000F07F4510B500240520FCF7F4
:103E200051FE0A20FDF7C0FC0848FDF7A9FB58B970
:103E300064210648FDF706FB18B90448FDF7CDF9E3
:103E400004460248FDF7FCFB204610BDAC340020C0
:103E500010B50446032000F033F801462046FCF775
:103E6000F1FA01D2012010BD002010BD0F4910B59C
:103E7000884214DB0E4A4FF47A74904213DCFCF74C
:103E80003EFA0C49FCF773FA0B49FCF73EFA0B4972
:103E9000FCF7E3F9FCF7AEFA80B20A2801D20A2057
:103EA00010BDA042FCD9204610BD00009A99993E51
:103EB00000004040CDCC2C400080774400002041E1
:103EC00070B5060000D1012600252C4608E000BF91
:103ED00000F01EF805440A20FDF766FC641CE4B2FD
:103EE000B442F5D33046FCF780FA04462846FCF786
:103EF0007CFA2146FCF73BFA0349FCF706FABDE8D9
:103F000070400249FCF733BA3333534000F07F4529
:103F100010B500240120FCF7D5FD0A20FDF744FC74
:103F20000848FDF72DFB58B964210648FDF78AFAC9
:103F300018B90448FDF751F904460248FDF780FB23
:103F4000204610BDAC34002070B5060000D101261B
:103F500000252C4608E000BF00F03EF805440A208A
:103F6000FDF722FC641CE4B2B442F5D33046FCF702
:103F70003CFA04462846FCF738FA2146FCF7F7F9E4
:103F80000349FCF7C2F9BDE870400249FCF7EFB9FC
:103F90003333534000F07F4510B50520FFF7D4FFC1
:103FA0000949FCF7ACF90949FCF7AFF9084C21467F
:103FB000FCF753F9074AA04201DA204610BD9042AF
:103FC000FCDD104610BD0000CDCCCC3D0000FA4415
:103FD000000096430080BB4510B500242046FCF746
:103FE00071FD0A20FDF7E0FB0848FDF7C9FA58B952
:103FF00064210648FDF726FA18B90448FDF7EDF8E4
:1040000004460248FDF71CFB204610BDAC340020DE
:1040100010B504460320FFF797FF01462046FCF742
:1040200011FA01D2012010BD002010BD3EB50024C0
:104030001C4800940194029419498460016004733F
:104040000475012505614FF460214460C161FDF7ED
:1040500035F908B1FDF73EF8CDE90045052469467C
:1040600010480294FDF73AF808B1FDF733F8022042
:104070000095CDE9010469460A48FDF72FF808B11B
:10408000FDF728F80320CDE9004069460548029471
:10409000FDF724F8002801D0FDF71CF83EBD000014
:1040A00000240140AC340020074910B505480860E1
:1040B0000846FDF7DFFA002803D0BDE81040FDF701
:1040C00009B810BD00300240940000202DE9F041F5
:1040D00086B00024294800940194029403948169D5
:1040E00041F020018161816901F020010491816921
:1040F00041F004018161816901F004010491816949
:1041000041F0080181618069DFF8748000F00800E7
:10411000049001224FF488714046FDF74CFC194F82
:10412000012211463846FDF746FC102001250326E2
:10413000CDE90005CDE9024669464046FDF746FB5C
:1041400001AA1120009582E8510069463846FDF722
:104150003DFB0226009669463846CDE90145FDF74C
:1041600035FB2802CDE90005CDE902466946404607
:10417000FDF72CFB06B0BDE8F08100000010024006
:1041800000080140000C01400D4810B50B490160CA
:104190000C49416000214FF480428160C0E9031264
:1041A00041618161C1610162FDF78EFD002803D08C
:1041B000BDE81040FCF78EBF10BD00000054004069
:1041C0006C370020801A0600104810B50E490160B7
:1041D0004FF48271416000218160C1604FF4007230
:1041E0000161C0E905120822C0E90721416281622C
:1041F0000A21C162FEF74AFB002803D0BDE8104047
:10420000FCF768BF10BD000000300140C03700203F
:104210000848074901604FF4E131416000218160A5
:104220000C22C160C0E904128161C161FEF7FCBDCE
:1042300000380140DC3400200848074901604FF491
:10424000E1314160002181600C22C160C0E90412AB
:104250008161C161FEF7E8BD0044004024350020C3
:10426000FEE7FEE710B521480022B6B00078052829
:1042700000D301221E490B78052B00D3521C1D4987
:104280000C78052C00D3521C1B490978052900D352
:10429000521CDAB1052901D318A100E019A1052C9F
:1042A00001D316A400E017A4052B01D313A300E04B
:1042B00014A30093CDE90141052801D30FA300E029
:1042C00010A311A103A801F06FF806E0CDE90041A9
:1042D000024618A103A801F067F800231A4603A9B3
:1042E0001EA0FCF7D3FD36B010BD0000ED0000208D
:1042F000EE000020EF000020F00000204641554C69
:10430000540000004F4B00004641554C54533A2591
:10431000645F44485431313A25735F4D51323A2538
:10432000735F4D513133353A25735F4C44523A2512
:1043300073000000414C4C5F4F4B5F444854313197
:104340003A25645F4D51323A25645F4D5131333522
:104350003A25645F4C44523A2564000073656E73DD
:104360006F722F6661756C74000000000B48007856
:10437000062810D2DFE800F0030507090B0D08A09E
:10438000704709A070470BA070470DA070470FA0A1
:10439000704710A0704711A070470000D80000209F
:1043A000494E4954000000004553505F494E49545E
:1043B00000000000574946495F434F4E4E00000041
:1043C0004D5154545F434F4E4E00000052554E4ED7
:1043D000494E47004552524F52000000554E4B4E39
:1043E0004F574E002DE9FC47DFF858A04FF4967167
:1043F000DAF8000001F002FD002820D11248164929
:10440000174AD0F8009011480D881449D0F8008060
:104410000F480978148806680E480078084301D0D0
:10442000012700E00027DAF8000001F0BFFCCDE929
:1044300000472B46324641464846FCF7F7FDBDE8AB
:10444000FC87000010000020F8000020FC00002085
:1044500008010020EA000020F2000020EB0000200C
:10446000F400002000B599B0FDF7AAFA4FF47A7174
:10447000B0FBF1F305A20A49684600F095FF41F24E
:1044800088316846FCF7C8FD19B000BD53544D3360
:10449000325F53656E736F725F3030310000000021
:1044A0000476000870B5002404F1B000C0B2002109
:1044B00000F080F90021084600F07CF9002110206E
:1044C00000F078F900250121002000F073F96D1C3F
:1044D000EDB2802DF7D3641CE4B2082CE4D370BD98
:1044E00010B507280CD80146002000F0A0F80024E1
:1044F0000121002000F05EF9641CE4B2802CF7D3A7
:1045000010BD10B500218D2000F054F900211020BD
:1045100000F050F90021BDE81040AE2000F04AB98B
:1045200010B500218D2000F045F90021142000F085
:1045300041F90021BDE81040AF2000F03BB910B5B3
:10454000C820FDF731F90021AE2000F033F9002139
:10455000202000F02FF90021102000F02BF900217D
:10456000B02000F027F90021C82000F023F9002135
:10457000084600F01FF90021102000F01BF900216F
:10458000402000F017F90021812000F013F90021EC
:10459000FF2000F00FF90021A12000F00BF900210D
:1045A000A62000F007F90021A82000F003F900215F
:1045B0003F2000F0FFF80021A42000F0FBF80021CC
:1045C000D32000F0F7F80021084600F0F3F80021AE
:1045D000D52000F0EFF80021F02000F0EBF80021EA
:1045E000D92000F0E7F80021222000F0E3F80021B4
:1045F000DA2000F0DFF80021122000F0DBF80021C3
:10460000DB2000F0D7F80021202000F0D3F80021B3
:104610008D2000F0CFF80021142000F0CBF800210D
:10462000AF2000F0C7F8BDE81040FFF73BBF10B562
:104630000446B031C8B2002100F0BCF8102040EAB6
:104640001410002100F0B6F804F00F00BDE810408F
:10465000002100F0AFB8000070B500242546202AE4
:1046600021D0212A05D0A2F13003092B03D82E3AFC
:1046700010E0012417E0A2F14103192B01D8353ACB
:1046800008E02E2A08D02D2A08D0A2F16103192BA8
:1046900006D8393AD4B206E0262404E0272402E002
:1046A000252A00D14224FFF7C2FF074904EB44004A
:1046B00001EB40040121605D00F07CF86D1CEDB25F
:1046C000062DF7D370BD0000A87300082DE9F04750
:1046D00080461F46924689461046089EFBF78AFE92
:1046E000054631460A2001F045FBFBF77EFE0446F5
:1046F0002846FBF77AFE5146FBF704FE2146FBF7FE
:1047000004FEFBF777FE04463B462A4649464046F0
:1047100000F012F807EB470108EB4105E8B22E2242
:104720004946FFF799FFAD1DE8B233462246494698
:10473000BDE8F047AFF300802DE9F04700241D46A7
:104740001646894680460A2717E0281B401EC1B23C
:104750000A2001F00FFBB6FBF0F0B0FBF7F107FB0E
:1047600011003030C2B204EB440108EB4100C0B28A
:104770004946FFF771FF641CE4B2AC42E5D3BDE8E3
:10478000F0872DE9F04117460E46044600250CE05F
:1047900031462046FFF760FFA41DE4B2782C02D911
:1047A0000024761CF6B26D1CEDB27A5D002AEFD1C2
:1047B000BDE8F0811CB501B140218DF804108DF8E1
:1047C000050064200090022301AA78210148FDF72A
:1047D00043FB1CBD6C37002042F2107001F0D2FA8E
:1047E00046F2A81000F0A2FD28B14FF47A742046DA
:1047F00001F0C8FAFBE700F08DFDFDF7E1F8044693
:1048000041F270764FF4FA67FDF7DAF805460320B7
:1048100000F0B6FD00F056FD28B1281BB04202D3CF
:1048200000F078FD2C46384601F0ACFAECE70000C9
:10483000964C86B04FF47A71206801F0DFFA80B9A7
:10484000FFF77DFEFFF72EFE91A205210F20FFF757
:1048500098FF94A201210020FFF793FF206801F048
:10486000A5FA41F2883001F08DFA924E012000F055
:1048700087FD6421306801F0C1FA10B14FF47A70FD
:1048800000E18D48006805908C48006804908C48D1
:10489000006803908B4890F800908B480088029045
:1048A0008A48008801908A4890F800B0894890F8BA
:1048B00000A08948077889480578894890F80080E1
:1048C000306801F073FA4FF47A71206801F096FABB
:1048D00000287DD16FB1FFF7E5FD82A204211420ED
:1048E000FFF74FFF4FF4FA6001F04CFAFFF709FEB3
:1048F000C3E055EA080010D0FFF712FEFFF7D2FD23
:1049000025B17CA202212320FFF73BFFB8F1000F65
:10491000EED003217BA22820ADE0FFF701FE0020AE
:10492000FFF7DEFD00217AA20846FFF72AFFB9F162
:10493000000F0DD001200090022300213220059AA3
:10494000FFF7C4FE432200215020FFF785FE04E05C
:1049500071A200213220FFF714FF0120FFF7C0FDF4
:104960006EA201210020FFF70CFFB9F1000F0DD05E
:1049700001200090014602233220049AFFF7A6FE90
:10498000252201215020FFF767FE04E065A20121E6
:104990003220FFF7F6FE0220FFF7A2FD63A20221FC
:1049A0000020FFF7EEFE0398FBF724FD02460423E8
:1049B00002213220FFF7C0FE5EA202215020FFF745
:1049C000E0FE0320FFF78CFD03215BA2002000E046
:1049D00056E0FFF7D6FE042303213220029AFFF7A8
:1049E000ABFE54A203215020FFF7CBFE0420FFF7BB
:1049F00077FD53A204210020FFF7C3FE04231946CC
:104A00003220019AFFF798FE4FA204215020FFF7B1
:104A1000B8FE0520FFF764FD4CA205210020FFF73A
:104A2000B0FEBBF1000F01D04AA200E04CA205216C
:104A30003220FFF7A6FE0620FFF752FD4CA206210A
:104A40000020FFF79EFEBAF1000F01D041A200E066
:104A500043A206213220FFF794FEFFF787FC0546AC
:104A60000720FFF73DFD44A207210020FFF789FE44
:104A70002A4607213220FFF784FE206801F096F9CC
:104A80004FF4FA5001F07EF9F0E600001400002027
:104A900053797374656D205374617274696E672EF7
:104AA0002E2E0000506C6561736520576169742E6D
:104AB0002E2E000010000020F8000020FC00002036
:104AC00008010020E9000020F2000020F40000208E
:104AD0001C0100201D010020E8000020EA00002049
:104AE000EB000020506F7765722053617665204D92
:104AF0006F646500534D4F4B4520414C41524D2151
:104B00000000000041495220414C41524D2100001B
:104B100054656D703A0000002D2E2D0048756D69AA
:104B20003A0000002D2E2D2500000000536D6F6B04
:104B3000653A000070706D004169723A0000000033
:104B40004C696768743A00006C757800576946696B
:104B50003A000000436F6E6E656374656400000088
:104B6000446973636F6E6E65637465640000000072
:104B70004D5154543A00000053544154453A0000FA
:104B800008B541F6583001F0FDF84FF0050B4FF035
:104B90000108DFF85891564F4FF0000A554E564C19
:104BA000FCF70EFF0546022000F0EAFB64213068A6
:104BB00001F024F9002872D1207806287CD2DFE8A1
:104BC00000F003060F1F3B6F84F8008074E0FCF7D1
:104BD0002FF918B184F800B0A5606DE002206AE0FA
:104BE00046A149A0FCF7BAF828B184F800B0A56046
:104BF00089F800A060E00320207089F800805BE065
:104C000042A0009041A342A240F25B7145A0FCF794
:104C100059F828B184F800B0A56087F800A04BE0EF
:104C20000420207087F80080002142A0FCF72EFAB3
:104C3000FFF718FC65603FE0424889F8008087F87C
:104C40000080007810B144F6440001E042F23410D4
:104C50006168691A814206D3FFF704FCFFF7C2FBC3
:104C6000FFF700FB6560E0684EF66021281A884275
:104C700022D3FCF7B1F8022807D002202070A560EB
:104C800089F800A087F800A007E0FCF79FF8022849
:104C900003D00320207087F800A0E5600CE00EE050
:104CA00089F800A087F800A0A16850466A1A42F26D
:104CB00010718A4200D32070306801F077F82078B4
:104CC000062804D2DFE800F003030606090C4FF4BF
:104CD000FA6007E040F6B83004E041F2883001E0C5
:104CE00042F2107001F04EF85AE700001C0100205B
:104CF0001D01002018000020D800002048786832EC
:104D00003030313035323300485848000000000060
:104D100053544D33325F53656E736F725F30303171
:104D2000000000003139322E3136382E3133372E23
:104D30003334000073656E736F722F636F6E74721D
:104D40006F6C0000E800002088B040F6B83001F039
:104D500019F8704C002000F013FB01A96846FBF71E
:104D60000BFF00287FD0002060716B4900984FF046
:104D7000010B884209D86949884206DC019810F184
:104D8000FF4F02D26649884203DD4FF0000B01203D
:104D90006071FFF721F94FF48058074640456BD208
:104DA0000320FFF7D1F881464FF08040FFF730F93C
:104DB0000790FFF7F1F804900020A07119F1FF4F60
:104DC00002D25849894505DD0120A0714FF0000944
:104DD00000200490FFF79CF80546401E40F6FE7147
:104DE000884251D20320FFF76BF882464E48FFF706
:104DF0002FF806905046FFF739F803900020E07135
:104E00001AF1FF4F02D247498A4505DD0120E071C2
:104E10004FF0000A00200390FEF7FEFF06464045D3
:104E20003AD20320FEF7D0FF8046FEF7BFFF059081
:104E30004046FEF7A9FF02900020207218F1FF4FB4
:104E400002D23849884505DD012020724FF0000864
:104E50000020029035484FF4FA71006800F0CEFF50
:104E600010B33DE0FFE74FF0000BCDF800B0CDF8F8
:104E700004B06079401C8BE7A0794FF00009401C1A
:104E8000A071CDF81C90A3E7E0794FF0000A401C18
:104E9000E071CDF818A0BDE7207A4FF00008401C63
:104EA0002072CDF81480D3E7009820610198E76163
:104EB000C4E905090798A0700498206284F801B03D
:104EC000C4E909A50698E07003986081C4E90B86DF
:104ED000059820710298A0811448006800F066FFD0
:104EE000A089642801D2012000E00020A178E278A6
:104EF000114300D0012100B129B10020207020B160
:104F000042F2107003E00120F8E741F2883000F02F
:104F100039FF1FE7E8000020000020C20000A04287
:104F20000000C842333353400000204010000020EE
:104F300010B5502080F31188BFF34F8FBFF36F8FF0
:104F400002F048F818B104494FF080500860002082
:104F500080F3118810BD000004ED00E030B593B07F
:104F600028216846FBF755F914210AA8FBF751F9E7
:104F7000002501200F9510951195010412958DE8DB
:104F8000230004904FF4E010CDE9081002240794A8
:104F90006846FDF7EBFA08B1FCF79CF80AA90F2068
:104FA00081E831004FF48060CDE90D0502210AA8A7
:104FB000FDF7E0F908B1FCF78DF84FF400401190CF
:104FC0000F940FA8FDF760F9002801D0FCF782F8D4
:104FD00013B030BD704700000148FDF746BD00002A
:104FE00074030020F0B50268194B1A4C1A4D4FF0AB
:104FF0008047984205D0B84203D0A04201D0A842D1
:1050000003D122F070064A683243984205D0B84274
:1050100003D0A04201D0A84203D122F44074CA6850
:1050200022434C6922F08002224302608A68C262F5
:105030000A688262984201D10969016301214161D4
:105040000169C90703D0016921F001010161F0BDC7
:10505000002C0140000400400008004010B5406AE8
:105060000021C185C184FDF7A7FD10BD01680C3189
:1050700051E8002F22F4907241E80023002BF5D173
:105080000168143151E8002F22F0010241E80023A9
:10509000002BF5D1016B012909D101680C3151E8D0
:1050A000002F22F0100241E80023002BF5D120212F
:1050B00080F8421000210163704708B590F8421053
:1050C000222901D0022008BD82684FF480539A4201
:1050D00001D1016921B1816A9A421BD04AB10AE02B
:1050E0000268816A5268C2F308020A80816A891CD8
:1050F00008E0026972B10268526802F07F020A7029
:10510000816A491C8162C18D491E0904090CC1854F
:1051100003D01BE002685268F1E70168CA6822F018
:105120002002CA600168CA6822F48072CA600168FD
:105130004A6922F001024A61202180F842100021D0
:105140004163026B012A03D0FDF764FF002008BD14
:10515000016301680C3151E8002F22F0100241E890
:105160000023002BF5D101680A68D20602D50A682F
:1051700049680091818DFDF71EFDE7E770B5044693
:1051800000680169E26821F440511143016121691D
:10519000A0680843616908432168CA6841F20C634A
:1051A0009A430243CA6020684169A26921F44071B0
:1051B000114341611E492068884202D1FDF7A0F9E0
:1051C00001E0FDF78DF900EBC00101EB0012606812
:1051D00064218000B2FBF0F3B3FBF1F36FF018062B
:1051E0007343B2FBF0F5B2FBF0F605EB8305322317
:1051F00003EB0515B5FBF1F5B6FBF1F605F0F0058F
:1052000005EB0615B2FBF0F6B2FBF0F0B0FBF1F0E7
:105210006FF01802504306EB800003EB0010B0FB68
:10522000F1F0216800F00F002844886070BD000094
:10523000003801402DE9F843984617460D460446CC
:10524000089E24E0701C22D0FCF7BAFBA0EB0800FB
:10525000B0421AD8CEB12068C168490717D5802D51
:1052600015D0402D13D00168C94309070FD4016838
:105270000025406800902046FFF7F8FE0820606493
:1052800084F840500120BDE8F8830320FBE7206844
:10529000006835EA000004D00020B842D2D00020D7
:1052A000F1E70120F9E700000148FDF787BC0000A5
:1052B000DC3400200148FDF781BC000024350020CB
:1052C000FEE700002DE9F041FCF77AFB10490123CD
:1052D00047F230544968411AA14202D20120BDE888
:1052E000F08100210A4A0F4612F1080201EB410544
:1052F00052F82560861BA64203D902EB85031F7175
:105300000023491CC9B20429F0D31846E7E700007E
:10531000A000002003480078002802D00248FCF7D3
:10532000A2BE7047A000002018380020124910B516
:10533000104A0A6006224A6049F6404250434FF440
:105340007A32B0FBF2F0B0F5805F02D340F6FF7026
:1053500001E000B9012088600748FCF755FE08B15C
:10536000012010BDFCF72CFB0449486001200870A7
:10537000002010BD0030004018380020A0000020A0
:1053800010B5044604280BD2FCF71AFB0246054868
:1053900004EB440140F8212000EB8100012202715E
:1053A00010BD0000A80000200FB4084B10B504A9E0
:1053B00002AA039800F0EEF8044602A9002000F0CB
:1053C0006CFC204610BC5DF814FB00009B5C0008E0
:1053D0000907090E002804DB00F1E02080F8001422
:1053E000704700F00F0000F1E02080F8141D7047B6
:1053F00002E008C8121F08C1002AFAD1704770479E
:10540000002001E001C1121F002AFBD170470000FB
:105410002DE9FF5F82B00021DDE90430020DDDF8E7
:1054200040B0034318D044F61050A2F2FF3242437A
:105430001514119801281FD0A5EB0B00401C5FEA42
:10544000000A4FF000064E4FDFF83891B046504644
:1054500015D5CAF1000413E0119801244AA30128CC
:1054600001D16FEA0B010298119AC0E90031C0E93D
:10547000024206B0BDE8F09FCBF10000DFE7044632
:105480000021404A491842EB0450CDE9001012E0D7
:10549000E00707D032463B4640464946FBF701F954
:1054A0008046894632463B4610461946FBF7F9F8D6
:1054B00006460F466410002CEAD1DDE90401DDE95F
:1054C0000023BAF1000F06DAFBF7EBF842464B4631
:1054D000FBF7E7F805E0FBF756F942464B46FBF7CA
:1054E00052F904460E460022284BFBF7D3F903D8A5
:1054F0004FF0FF30014607E00022254B20463146A1
:10550000FBF728F8FBF7AEF9102409E0002C0ADBC2
:105510000A220023FAF7B6FF039B30321A55641EA5
:1055200050EA0102F2D1641C039AC4F1110314443D
:10553000119A012A03D0012208430DD10AE0084341
:1055400004D000204FF0110B119072E7A3EB0B0574
:105550006D1E0DE05B4504DD4FF0000205F1010515
:1055600004E003DA4FF00002A5F10105002AECD0B7
:1055700002981199C0E90231C0E9004579E70000BD
:10558000000014400000F03F300000000000F04335
:105590000000E03F2DE9FF4F95B09A468846064649
:1055A0000025EEE1252877D100242746F94A01217C
:1055B000039400E0044316F8013F203B01FA03F096
:1055C0001042F7D130782A2811D06FF02F033078AD
:1055D000A0F13002092A16D8039A44F0020402EB23
:1055E000820203EB42021044761C0390EFE758F866
:1055F000042B0392002A03DA504244F4005403902F
:1056000044F00204761C30782E2816D116F8010FCB
:1056100044F004042A280DD06FF02F023078A0F156
:105620003003092B09D807EB870302EB4303C718A4
:10563000761CF3E758F8047B761C30786C280FD082
:1056400006DC4C2817D068280DD06A2814D104E055
:10565000742810D07A280FD10DE044F400140AE029
:1056600044F4801401E044F440147278824202D180
:1056700004F58014761C761C307866280BD013DC79
:10568000582877D009DC002875D04528F6D0462860
:10569000F4D047281AD193E118E0632835D0642864
:1056A00079D0652812D18BE1702873D008DC672887
:1056B000F1D069286FD06E280DD06F2806D1ACE0EC
:1056C00073282CD0752874D0782853D05246179957
:1056D00090476D1C54E1C4F30250022809D00328FE
:1056E0000DD0D8F8001004280DD00D6008F1040882
:1056F00046E1D8F80010EA17C1E90052F6E7D8F8F9
:1057000000100D80F2E70D70F0E718F8041B8DF81B
:10571000001000208DF80100EB46012003E058F84E
:1057200004BB4FF0FF3061074FF0000102D40DE0E1
:1057300009F101018946B9420FDA8145F8DB1BF80E
:1057400009100029F4D108E009F1010189468142DC
:10575000FADB1BF809100029F6D103985346A0EB99
:10576000090721463846179A00F080FA284400EBD2
:10577000090507E044E008E10DE01BF8010B524683
:1057800017999047B9F10109F7D253462146384697
:10579000179AF2E039E00A21C4F302524FF0000BED
:1057A0000091022A06D058F8040BC117032A09D029
:1057B0000AE023E008F1070020F00702F2E8020106
:1057C000904605E000B2C117042A01D140B2C117CA
:1057D000002906DA0A460021404261EB02012D222F
:1057E00002E0220504D52B228DF80420012203E0DB
:1057F000E20701D02022F7E7914657E00A2100E0B6
:1058000010214FF0000B00910BE010214FF0000B26
:1058100044F004040827009103E008204FF0000B37
:105820000090C4F30252022A05D058F8040B00215C
:10583000032A08D008E008F1070020F00702F2E888
:105840000201904603E080B2042A00D1C0B24FF0BA
:10585000000922072AD53278702A07D0DDF800C067
:105860008CF0100C5CEA0B0C05D00EE040228DF899
:105870000420012208E050EA010306D030238DF80D
:1058800004308DF8052002229146009B83F0080326
:1058900053EA0B030AD150EA010201D1620705D590
:1058A00030228DF804204FF001097F1E3278582AEB
:1058B00004D039A20C920CAA02920BE03BA2F9E7A9
:1058C0005B46009AFAF7DEFD0C9B9B5C029A521E27
:1058D0000292137050EA0102F2D1029804A9081A48
:1058E00000F1200B600702D524F4803400E001278A
:1058F0005F4502DDA7EB0B0000E0002000EB0B0191
:10590000009003984944401A0390E00306D453469C
:105910002146179A039800F0A9F90544002706E0EC
:1059200001A85246C05D179990476D1C7F1C4F45DA
:10593000F6DBE0030CD553462146179A039800F096
:1059400095F9054404E030205246179990476D1CA4
:105950000099481E00900029F5DC08E002980299A1
:1059600052460078491C0291179990476D1CBBF173
:105970000001ABF1010BF1DC5BE100F065F90544DE
:10598000761C307800287FF40DAE19B02846BDE8AB
:10599000F08F0000092801003031323334353637BA
:1059A000383961626364656600000000303132336B
:1059B000343536373839414243444546000000000B
:1059C000600700D4062708F1070020F00700F0E880
:1059D0000223804603F0004C5FEA0C0001D097A040
:1059E00009E0200501D596A005E0E00701D095A0CB
:1059F00001E0AFF24C001390307823F000436528AB
:105A00000CD006DC452809D046281DD047287FD178
:105A10003BE0662818D067287AD136E00021112FA4
:105A200001DB112000E0781CCDE9000104A90CA8DD
:105A3000FFF7EEFCDDE90D010C9A4FF0000B07F1CA
:105A40000109109200914EE04FF000400097CDE91F
:105A5000011004A90CA8FFF7DBFCDDE90D020C9B8B
:105A60000F994FF0000B91461093009211B9791CD9
:105A700000EB0109B7EB090003D4C0F1FF3B07F1CC
:105A80000109A9EB0700019042E0012F00DA01278C
:105A90000021112F01DD112000E03846CDE9000181
:105AA00004A90CA8FFF7B4FCDDE90D010C9A0091E4
:105AB0004FF0000BB946109221070FD4009A4A45C7
:105AC00003DA914601E0A9F10109B9F1010F05DD01
:105AD000109AA9F10101515C3029F4D0B84202DAE0
